{"src/WinMeStore.sol":{"WinMeStore":{"abi":[{"inputs":[{"internalType":"address payable","name":"_treasuryAddress","type":"address"},{"internalType":"contract IWinMeToken","name":"_winMeTokenAddress","type":"address"},{"internalType":"contract IAggregatorV3","name":"_aggregatorAddress","type":"address"}],"stateMutability":"nonpayable","type":"constructor"},{"inputs":[{"internalType":"address","name":"owner","type":"address"}],"name":"OwnableInvalidOwner","type":"error"},{"inputs":[{"internalType":"address","name":"account","type":"address"}],"name":"OwnableUnauthorizedAccount","type":"error"},{"anonymous":false,"inputs":[{"indexed":true,"internalType":"address","name":"previousOwner","type":"address"},{"indexed":true,"internalType":"address","name":"newOwner","type":"address"}],"name":"OwnershipTransferred","type":"event"},{"anonymous":false,"inputs":[{"indexed":true,"internalType":"uint256","name":"currencyUsdPrice","type":"uint256"},{"indexed":true,"internalType":"uint256","name":"currencyAmount","type":"uint256"},{"indexed":true,"internalType":"uint256","name":"winMeTokenReceived","type":"uint256"}],"name":"WinMeTokenPurchasedWithNetworkCurrency","type":"event"},{"inputs":[],"name":"getChainlinkDataFeedLatestAnswer","outputs":[{"internalType":"int256","name":"","type":"int256"}],"stateMutability":"view","type":"function"},{"inputs":[],"name":"owner","outputs":[{"internalType":"address","name":"","type":"address"}],"stateMutability":"view","type":"function"},{"inputs":[],"name":"purchaseWinMeNftWithERC20","outputs":[],"stateMutability":"nonpayable","type":"function"},{"inputs":[],"name":"purchaseWinMeNftWithNetworkCurrency","outputs":[],"stateMutability":"payable","type":"function"},{"inputs":[{"internalType":"contract IERC20","name":"_tokenAddress","type":"address"}],"name":"purchaseWinMeTokenWithERC20","outputs":[],"stateMutability":"nonpayable","type":"function"},{"inputs":[],"name":"purchaseWinMeTokenWithNetworkCurrency","outputs":[],"stateMutability":"payable","type":"function"},{"inputs":[],"name":"renounceOwnership","outputs":[],"stateMutability":"nonpayable","type":"function"},{"inputs":[{"internalType":"uint256","name":"_newPrice","type":"uint256"}],"name":"setNetworkCurrencyPrice","outputs":[],"stateMutability":"nonpayable","type":"function"},{"inputs":[{"internalType":"address payable","name":"_newTreasuryAddress","type":"address"}],"name":"setTreasuryAddress","outputs":[],"stateMutability":"nonpayable","type":"function"},{"inputs":[{"internalType":"uint256","name":"_newWinMeNftPrice","type":"uint256"}],"name":"setWinMeNftPrice","outputs":[],"stateMutability":"nonpayable","type":"function"},{"inputs":[{"internalType":"uint256","name":"_newWinMeTokenPrice","type":"uint256"}],"name":"setWinMeTokenPrice","outputs":[],"stateMutability":"nonpayable","type":"function"},{"inputs":[{"internalType":"address","name":"newOwner","type":"address"}],"name":"transferOwnership","outputs":[],"stateMutability":"nonpayable","type":"function"},{"inputs":[],"name":"winMeNftPrice","outputs":[{"internalType":"uint256","name":"","type":"uint256"}],"stateMutability":"view","type":"function"},{"inputs":[{"internalType":"uint256","name":"currencyAmount","type":"uint256"}],"name":"winMeTokenAmount","outputs":[{"internalType":"uint256","name":"","type":"uint256"}],"stateMutability":"nonpayable","type":"function"},{"inputs":[],"name":"winMeTokenPrice","outputs":[{"internalType":"uint256","name":"","type":"uint256"}],"stateMutability":"view","type":"function"}],"evm":{"bytecode":{"linkReferences":{},"object":"6080604052630bebc200600555633b9aca006006553480156200002157600080fd5b506040516200100838038062001008833981810160405281019062000047919062000367565b33600073ffffffffffffffffffffffffffffffffffffffff168173ffffffffffffffffffffffffffffffffffffffff1603620000bd5760006040517f1e4fbdf7000000000000000000000000000000000000000000000000000000008152600401620000b49190620003d4565b60405180910390fd5b620000ce816200019b60201b60201c565b5081600160006101000a81548173ffffffffffffffffffffffffffffffffffffffff021916908373ffffffffffffffffffffffffffffffffffffffff16021790555080600260006101000a81548173ffffffffffffffffffffffffffffffffffffffff021916908373ffffffffffffffffffffffffffffffffffffffff16021790555082600360006101000a81548173ffffffffffffffffffffffffffffffffffffffff021916908373ffffffffffffffffffffffffffffffffffffffff160217905550505050620003f1565b60008060009054906101000a900473ffffffffffffffffffffffffffffffffffffffff169050816000806101000a81548173ffffffffffffffffffffffffffffffffffffffff021916908373ffffffffffffffffffffffffffffffffffffffff1602179055508173ffffffffffffffffffffffffffffffffffffffff168173ffffffffffffffffffffffffffffffffffffffff167f8be0079c531659141344cd1fd0a4f28419497f9722a3daafe3b4186f6b6457e060405160405180910390a35050565b600080fd5b600073ffffffffffffffffffffffffffffffffffffffff82169050919050565b6000620002918262000264565b9050919050565b620002a38162000284565b8114620002af57600080fd5b50565b600081519050620002c38162000298565b92915050565b6000620002d68262000264565b9050919050565b6000620002ea82620002c9565b9050919050565b620002fc81620002dd565b81146200030857600080fd5b50565b6000815190506200031c81620002f1565b92915050565b60006200032f82620002c9565b9050919050565b620003418162000322565b81146200034d57600080fd5b50565b600081519050620003618162000336565b92915050565b6000806000606084860312156200038357620003826200025f565b5b60006200039386828701620002b2565b9350506020620003a6868287016200030b565b9250506040620003b98682870162000350565b9150509250925092565b620003ce81620002c9565b82525050565b6000602082019050620003eb6000830184620003c3565b92915050565b610c0780620004016000396000f3fe6080604052600436106100e85760003560e01c80637cd888d81161008a578063b09853d311610059578063b09853d314610287578063bea4dfb514610291578063d5333ea4146102bc578063f2fde38b146102e5576100e8565b80637cd888d8146101f157806385b5e1fd1461021c5780638da5cb5b14610233578063a2f6447c1461025e576100e8565b80635c762ba4116100c65780635c762ba41461017e5780636605bfda14610188578063694b386e146101b1578063715018a6146101da576100e8565b80630f62f5c8146100ed5780632a26073014610116578063361ee22114610141575b600080fd5b3480156100f957600080fd5b50610114600480360381019061010f91906107fd565b61030e565b005b34801561012257600080fd5b5061012b610311565b6040516101389190610843565b60405180910390f35b34801561014d57600080fd5b506101686004803603810190610163919061088a565b610317565b6040516101759190610843565b60405180910390f35b6101866103a6565b005b34801561019457600080fd5b506101af60048036038101906101aa91906108f5565b610445565b005b3480156101bd57600080fd5b506101d860048036038101906101d3919061088a565b610491565b005b3480156101e657600080fd5b506101ef6104a3565b005b3480156101fd57600080fd5b506102066104b7565b6040516102139190610843565b60405180910390f35b34801561022857600080fd5b506102316104bd565b005b34801561023f57600080fd5b506102486104bf565b6040516102559190610931565b60405180910390f35b34801561026a57600080fd5b506102856004803603810190610280919061088a565b6104e8565b005b61028f6104fa565b005b34801561029d57600080fd5b506102a66104fc565b6040516102b39190610965565b60405180910390f35b3480156102c857600080fd5b506102e360048036038101906102de919061088a565b61059d565b005b3480156102f157600080fd5b5061030c600480360381019061030791906109ac565b6105af565b005b50565b60055481565b6000806103226104fc565b90506000678ac7230489e80000828561033b9190610a08565b6103459190610a79565b90506000678ac7230489e80000600554836103609190610a79565b61036a9190610a08565b90508085847f06da30d7fb8616ab3948d5530637477bc5fb2ee3568216ae26f8307898cab6bc60405160405180910390a4809350505050919050565b60006103b134610317565b9050600160009054906101000a900473ffffffffffffffffffffffffffffffffffffffff1673ffffffffffffffffffffffffffffffffffffffff166340c10f1933836040518363ffffffff1660e01b8152600401610410929190610aaa565b600060405180830381600087803b15801561042a57600080fd5b505af115801561043e573d6000803e3d6000fd5b5050505050565b61044d610635565b80600360006101000a81548173ffffffffffffffffffffffffffffffffffffffff021916908373ffffffffffffffffffffffffffffffffffffffff16021790555050565b610499610635565b8060058190555050565b6104ab610635565b6104b560006106bc565b565b60065481565b565b60008060009054906101000a900473ffffffffffffffffffffffffffffffffffffffff16905090565b6104f0610635565b8060048190555050565b565b600080600260009054906101000a900473ffffffffffffffffffffffffffffffffffffffff1673ffffffffffffffffffffffffffffffffffffffff1663feaf968c6040518163ffffffff1660e01b815260040160a060405180830381865afa15801561056c573d6000803e3d6000fd5b505050506040513d601f19601f820116820180604052508101906105909190610b56565b5050509150508091505090565b6105a5610635565b8060068190555050565b6105b7610635565b600073ffffffffffffffffffffffffffffffffffffffff168173ffffffffffffffffffffffffffffffffffffffff16036106295760006040517f1e4fbdf70000000000000000000000000000000000000000000000000000000081526004016106209190610931565b60405180910390fd5b610632816106bc565b50565b61063d610780565b73ffffffffffffffffffffffffffffffffffffffff1661065b6104bf565b73ffffffffffffffffffffffffffffffffffffffff16146106ba5761067e610780565b6040517f118cdaa70000000000000000000000000000000000000000000000000000000081526004016106b19190610931565b60405180910390fd5b565b60008060009054906101000a900473ffffffffffffffffffffffffffffffffffffffff169050816000806101000a81548173ffffffffffffffffffffffffffffffffffffffff021916908373ffffffffffffffffffffffffffffffffffffffff1602179055508173ffffffffffffffffffffffffffffffffffffffff168173ffffffffffffffffffffffffffffffffffffffff167f8be0079c531659141344cd1fd0a4f28419497f9722a3daafe3b4186f6b6457e060405160405180910390a35050565b600033905090565b600080fd5b600073ffffffffffffffffffffffffffffffffffffffff82169050919050565b60006107b88261078d565b9050919050565b60006107ca826107ad565b9050919050565b6107da816107bf565b81146107e557600080fd5b50565b6000813590506107f7816107d1565b92915050565b60006020828403121561081357610812610788565b5b6000610821848285016107e8565b91505092915050565b6000819050919050565b61083d8161082a565b82525050565b60006020820190506108586000830184610834565b92915050565b6108678161082a565b811461087257600080fd5b50565b6000813590506108848161085e565b92915050565b6000602082840312156108a05761089f610788565b5b60006108ae84828501610875565b91505092915050565b60006108c28261078d565b9050919050565b6108d2816108b7565b81146108dd57600080fd5b50565b6000813590506108ef816108c9565b92915050565b60006020828403121561090b5761090a610788565b5b6000610919848285016108e0565b91505092915050565b61092b816107ad565b82525050565b60006020820190506109466000830184610922565b92915050565b6000819050919050565b61095f8161094c565b82525050565b600060208201905061097a6000830184610956565b92915050565b610989816107ad565b811461099457600080fd5b50565b6000813590506109a681610980565b92915050565b6000602082840312156109c2576109c1610788565b5b60006109d084828501610997565b91505092915050565b7f4e487b7100000000000000000000000000000000000000000000000000000000600052601160045260246000fd5b6000610a138261082a565b9150610a1e8361082a565b9250828202610a2c8161082a565b91508282048414831517610a4357610a426109d9565b5b5092915050565b7f4e487b7100000000000000000000000000000000000000000000000000000000600052601260045260246000fd5b6000610a848261082a565b9150610a8f8361082a565b925082610a9f57610a9e610a4a565b5b828204905092915050565b6000604082019050610abf6000830185610922565b610acc6020830184610834565b9392505050565b600069ffffffffffffffffffff82169050919050565b610af281610ad3565b8114610afd57600080fd5b50565b600081519050610b0f81610ae9565b92915050565b610b1e8161094c565b8114610b2957600080fd5b50565b600081519050610b3b81610b15565b92915050565b600081519050610b508161085e565b92915050565b600080600080600060a08688031215610b7257610b71610788565b5b6000610b8088828901610b00565b9550506020610b9188828901610b2c565b9450506040610ba288828901610b41565b9350506060610bb388828901610b41565b9250506080610bc488828901610b00565b915050929550929590935056fea26469706673582212209a56062081017113b999521210b76bcc2ab3fc6102481da98b3566659cad889b64736f6c63430008140033","opcodes":"PUSH1 0x80 PUSH1 0x40 MSTORE PUSH4 0xBEBC200 PUSH1 0x5 SSTORE PUSH4 0x3B9ACA00 PUSH1 0x6 SSTORE CALLVALUE DUP1 ISZERO PUSH3 0x21 JUMPI PUSH1 0x0 DUP1 REVERT JUMPDEST POP PUSH1 0x40 MLOAD PUSH3 0x1008 CODESIZE SUB DUP1 PUSH3 0x1008 DUP4 CODECOPY DUP2 DUP2 ADD PUSH1 0x40 MSTORE DUP2 ADD SWAP1 PUSH3 0x47 SWAP2 SWAP1 PUSH3 0x367 JUMP JUMPDEST CALLER PUSH1 0x0 PUSH20 0xFFFFFFFFFFFFFFFFFFFFFFFFFFFFFFFFFFFFFFFF AND DUP2 PUSH20 0xFFFFFFFFFFFFFFFFFFFFFFFFFFFFFFFFFFFFFFFF AND SUB PUSH3 0xBD JUMPI PUSH1 0x0 PUSH1 0x40 MLOAD PUSH32 0x1E4FBDF700000000000000000000000000000000000000000000000000000000 DUP2 MSTORE PUSH1 0x4 ADD PUSH3 0xB4 SWAP2 SWAP1 PUSH3 0x3D4 JUMP JUMPDEST PUSH1 0x40 MLOAD DUP1 SWAP2 SUB SWAP1 REVERT JUMPDEST PUSH3 0xCE DUP2 PUSH3 0x19B PUSH1 0x20 SHL PUSH1 0x20 SHR JUMP JUMPDEST POP DUP2 PUSH1 0x1 PUSH1 0x0 PUSH2 0x100 EXP DUP2 SLOAD DUP2 PUSH20 0xFFFFFFFFFFFFFFFFFFFFFFFFFFFFFFFFFFFFFFFF MUL NOT AND SWAP1 DUP4 PUSH20 0xFFFFFFFFFFFFFFFFFFFFFFFFFFFFFFFFFFFFFFFF AND MUL OR SWAP1 SSTORE POP DUP1 PUSH1 0x2 PUSH1 0x0 PUSH2 0x100 EXP DUP2 SLOAD DUP2 PUSH20 0xFFFFFFFFFFFFFFFFFFFFFFFFFFFFFFFFFFFFFFFF MUL NOT AND SWAP1 DUP4 PUSH20 0xFFFFFFFFFFFFFFFFFFFFFFFFFFFFFFFFFFFFFFFF AND MUL OR SWAP1 SSTORE POP DUP3 PUSH1 0x3 PUSH1 0x0 PUSH2 0x100 EXP DUP2 SLOAD DUP2 PUSH20 0xFFFFFFFFFFFFFFFFFFFFFFFFFFFFFFFFFFFFFFFF MUL NOT AND SWAP1 DUP4 PUSH20 0xFFFFFFFFFFFFFFFFFFFFFFFFFFFFFFFFFFFFFFFF AND MUL OR SWAP1 SSTORE POP POP POP POP PUSH3 0x3F1 JUMP JUMPDEST PUSH1 0x0 DUP1 PUSH1 0x0 SWAP1 SLOAD SWAP1 PUSH2 0x100 EXP SWAP1 DIV PUSH20 0xFFFFFFFFFFFFFFFFFFFFFFFFFFFFFFFFFFFFFFFF AND SWAP1 POP DUP2 PUSH1 0x0 DUP1 PUSH2 0x100 EXP DUP2 SLOAD DUP2 PUSH20 0xFFFFFFFFFFFFFFFFFFFFFFFFFFFFFFFFFFFFFFFF MUL NOT AND SWAP1 DUP4 PUSH20 0xFFFFFFFFFFFFFFFFFFFFFFFFFFFFFFFFFFFFFFFF AND MUL OR SWAP1 SSTORE POP DUP2 PUSH20 0xFFFFFFFFFFFFFFFFFFFFFFFFFFFFFFFFFFFFFFFF AND DUP2 PUSH20 0xFFFFFFFFFFFFFFFFFFFFFFFFFFFFFFFFFFFFFFFF AND PUSH32 0x8BE0079C531659141344CD1FD0A4F28419497F9722A3DAAFE3B4186F6B6457E0 PUSH1 0x40 MLOAD PUSH1 0x40 MLOAD DUP1 SWAP2 SUB SWAP1 LOG3 POP POP JUMP JUMPDEST PUSH1 0x0 DUP1 REVERT JUMPDEST PUSH1 0x0 PUSH20 0xFFFFFFFFFFFFFFFFFFFFFFFFFFFFFFFFFFFFFFFF DUP3 AND SWAP1 POP SWAP2 SWAP1 POP JUMP JUMPDEST PUSH1 0x0 PUSH3 0x291 DUP3 PUSH3 0x264 JUMP JUMPDEST SWAP1 POP SWAP2 SWAP1 POP JUMP JUMPDEST PUSH3 0x2A3 DUP2 PUSH3 0x284 JUMP JUMPDEST DUP2 EQ PUSH3 0x2AF JUMPI PUSH1 0x0 DUP1 REVERT JUMPDEST POP JUMP JUMPDEST PUSH1 0x0 DUP2 MLOAD SWAP1 POP PUSH3 0x2C3 DUP2 PUSH3 0x298 JUMP JUMPDEST SWAP3 SWAP2 POP POP JUMP JUMPDEST PUSH1 0x0 PUSH3 0x2D6 DUP3 PUSH3 0x264 JUMP JUMPDEST SWAP1 POP SWAP2 SWAP1 POP JUMP JUMPDEST PUSH1 0x0 PUSH3 0x2EA DUP3 PUSH3 0x2C9 JUMP JUMPDEST SWAP1 POP SWAP2 SWAP1 POP JUMP JUMPDEST PUSH3 0x2FC DUP2 PUSH3 0x2DD JUMP JUMPDEST DUP2 EQ PUSH3 0x308 JUMPI PUSH1 0x0 DUP1 REVERT JUMPDEST POP JUMP JUMPDEST PUSH1 0x0 DUP2 MLOAD SWAP1 POP PUSH3 0x31C DUP2 PUSH3 0x2F1 JUMP JUMPDEST SWAP3 SWAP2 POP POP JUMP JUMPDEST PUSH1 0x0 PUSH3 0x32F DUP3 PUSH3 0x2C9 JUMP JUMPDEST SWAP1 POP SWAP2 SWAP1 POP JUMP JUMPDEST PUSH3 0x341 DUP2 PUSH3 0x322 JUMP JUMPDEST DUP2 EQ PUSH3 0x34D JUMPI PUSH1 0x0 DUP1 REVERT JUMPDEST POP JUMP JUMPDEST PUSH1 0x0 DUP2 MLOAD SWAP1 POP PUSH3 0x361 DUP2 PUSH3 0x336 JUMP JUMPDEST SWAP3 SWAP2 POP POP JUMP JUMPDEST PUSH1 0x0 DUP1 PUSH1 0x0 PUSH1 0x60 DUP5 DUP7 SUB SLT ISZERO PUSH3 0x383 JUMPI PUSH3 0x382 PUSH3 0x25F JUMP JUMPDEST JUMPDEST PUSH1 0x0 PUSH3 0x393 DUP7 DUP3 DUP8 ADD PUSH3 0x2B2 JUMP JUMPDEST SWAP4 POP POP PUSH1 0x20 PUSH3 0x3A6 DUP7 DUP3 DUP8 ADD PUSH3 0x30B JUMP JUMPDEST SWAP3 POP POP PUSH1 0x40 PUSH3 0x3B9 DUP7 DUP3 DUP8 ADD PUSH3 0x350 JUMP JUMPDEST SWAP2 POP POP SWAP3 POP SWAP3 POP SWAP3 JUMP JUMPDEST PUSH3 0x3CE DUP2 PUSH3 0x2C9 JUMP JUMPDEST DUP3 MSTORE POP POP JUMP JUMPDEST PUSH1 0x0 PUSH1 0x20 DUP3 ADD SWAP1 POP PUSH3 0x3EB PUSH1 0x0 DUP4 ADD DUP5 PUSH3 0x3C3 JUMP JUMPDEST SWAP3 SWAP2 POP POP JUMP JUMPDEST PUSH2 0xC07 DUP1 PUSH3 0x401 PUSH1 0x0 CODECOPY PUSH1 0x0 RETURN INVALID PUSH1 0x80 PUSH1 0x40 MSTORE PUSH1 0x4 CALLDATASIZE LT PUSH2 0xE8 JUMPI PUSH1 0x0 CALLDATALOAD PUSH1 0xE0 SHR DUP1 PUSH4 0x7CD888D8 GT PUSH2 0x8A JUMPI DUP1 PUSH4 0xB09853D3 GT PUSH2 0x59 JUMPI DUP1 PUSH4 0xB09853D3 EQ PUSH2 0x287 JUMPI DUP1 PUSH4 0xBEA4DFB5 EQ PUSH2 0x291 JUMPI DUP1 PUSH4 0xD5333EA4 EQ PUSH2 0x2BC JUMPI DUP1 PUSH4 0xF2FDE38B EQ PUSH2 0x2E5 JUMPI PUSH2 0xE8 JUMP JUMPDEST DUP1 PUSH4 0x7CD888D8 EQ PUSH2 0x1F1 JUMPI DUP1 PUSH4 0x85B5E1FD EQ PUSH2 0x21C JUMPI DUP1 PUSH4 0x8DA5CB5B EQ PUSH2 0x233 JUMPI DUP1 PUSH4 0xA2F6447C EQ PUSH2 0x25E JUMPI PUSH2 0xE8 JUMP JUMPDEST DUP1 PUSH4 0x5C762BA4 GT PUSH2 0xC6 JUMPI DUP1 PUSH4 0x5C762BA4 EQ PUSH2 0x17E JUMPI DUP1 PUSH4 0x6605BFDA EQ PUSH2 0x188 JUMPI DUP1 PUSH4 0x694B386E EQ PUSH2 0x1B1 JUMPI DUP1 PUSH4 0x715018A6 EQ PUSH2 0x1DA JUMPI PUSH2 0xE8 JUMP JUMPDEST DUP1 PUSH4 0xF62F5C8 EQ PUSH2 0xED JUMPI DUP1 PUSH4 0x2A260730 EQ PUSH2 0x116 JUMPI DUP1 PUSH4 0x361EE221 EQ PUSH2 0x141 JUMPI JUMPDEST PUSH1 0x0 DUP1 REVERT JUMPDEST CALLVALUE DUP1 ISZERO PUSH2 0xF9 JUMPI PUSH1 0x0 DUP1 REVERT JUMPDEST POP PUSH2 0x114 PUSH1 0x4 DUP1 CALLDATASIZE SUB DUP2 ADD SWAP1 PUSH2 0x10F SWAP2 SWAP1 PUSH2 0x7FD JUMP JUMPDEST PUSH2 0x30E JUMP JUMPDEST STOP JUMPDEST CALLVALUE DUP1 ISZERO PUSH2 0x122 JUMPI PUSH1 0x0 DUP1 REVERT JUMPDEST POP PUSH2 0x12B PUSH2 0x311 JUMP JUMPDEST PUSH1 0x40 MLOAD PUSH2 0x138 SWAP2 SWAP1 PUSH2 0x843 JUMP JUMPDEST PUSH1 0x40 MLOAD DUP1 SWAP2 SUB SWAP1 RETURN JUMPDEST CALLVALUE DUP1 ISZERO PUSH2 0x14D JUMPI PUSH1 0x0 DUP1 REVERT JUMPDEST POP PUSH2 0x168 PUSH1 0x4 DUP1 CALLDATASIZE SUB DUP2 ADD SWAP1 PUSH2 0x163 SWAP2 SWAP1 PUSH2 0x88A JUMP JUMPDEST PUSH2 0x317 JUMP JUMPDEST PUSH1 0x40 MLOAD PUSH2 0x175 SWAP2 SWAP1 PUSH2 0x843 JUMP JUMPDEST PUSH1 0x40 MLOAD DUP1 SWAP2 SUB SWAP1 RETURN JUMPDEST PUSH2 0x186 PUSH2 0x3A6 JUMP JUMPDEST STOP JUMPDEST CALLVALUE DUP1 ISZERO PUSH2 0x194 JUMPI PUSH1 0x0 DUP1 REVERT JUMPDEST POP PUSH2 0x1AF PUSH1 0x4 DUP1 CALLDATASIZE SUB DUP2 ADD SWAP1 PUSH2 0x1AA SWAP2 SWAP1 PUSH2 0x8F5 JUMP JUMPDEST PUSH2 0x445 JUMP JUMPDEST STOP JUMPDEST CALLVALUE DUP1 ISZERO PUSH2 0x1BD JUMPI PUSH1 0x0 DUP1 REVERT JUMPDEST POP PUSH2 0x1D8 PUSH1 0x4 DUP1 CALLDATASIZE SUB DUP2 ADD SWAP1 PUSH2 0x1D3 SWAP2 SWAP1 PUSH2 0x88A JUMP JUMPDEST PUSH2 0x491 JUMP JUMPDEST STOP JUMPDEST CALLVALUE DUP1 ISZERO PUSH2 0x1E6 JUMPI PUSH1 0x0 DUP1 REVERT JUMPDEST POP PUSH2 0x1EF PUSH2 0x4A3 JUMP JUMPDEST STOP JUMPDEST CALLVALUE DUP1 ISZERO PUSH2 0x1FD JUMPI PUSH1 0x0 DUP1 REVERT JUMPDEST POP PUSH2 0x206 PUSH2 0x4B7 JUMP JUMPDEST PUSH1 0x40 MLOAD PUSH2 0x213 SWAP2 SWAP1 PUSH2 0x843 JUMP JUMPDEST PUSH1 0x40 MLOAD DUP1 SWAP2 SUB SWAP1 RETURN JUMPDEST CALLVALUE DUP1 ISZERO PUSH2 0x228 JUMPI PUSH1 0x0 DUP1 REVERT JUMPDEST POP PUSH2 0x231 PUSH2 0x4BD JUMP JUMPDEST STOP JUMPDEST CALLVALUE DUP1 ISZERO PUSH2 0x23F JUMPI PUSH1 0x0 DUP1 REVERT JUMPDEST POP PUSH2 0x248 PUSH2 0x4BF JUMP JUMPDEST PUSH1 0x40 MLOAD PUSH2 0x255 SWAP2 SWAP1 PUSH2 0x931 JUMP JUMPDEST PUSH1 0x40 MLOAD DUP1 SWAP2 SUB SWAP1 RETURN JUMPDEST CALLVALUE DUP1 ISZERO PUSH2 0x26A JUMPI PUSH1 0x0 DUP1 REVERT JUMPDEST POP PUSH2 0x285 PUSH1 0x4 DUP1 CALLDATASIZE SUB DUP2 ADD SWAP1 PUSH2 0x280 SWAP2 SWAP1 PUSH2 0x88A JUMP JUMPDEST PUSH2 0x4E8 JUMP JUMPDEST STOP JUMPDEST PUSH2 0x28F PUSH2 0x4FA JUMP JUMPDEST STOP JUMPDEST CALLVALUE DUP1 ISZERO PUSH2 0x29D JUMPI PUSH1 0x0 DUP1 REVERT JUMPDEST POP PUSH2 0x2A6 PUSH2 0x4FC JUMP JUMPDEST PUSH1 0x40 MLOAD PUSH2 0x2B3 SWAP2 SWAP1 PUSH2 0x965 JUMP JUMPDEST PUSH1 0x40 MLOAD DUP1 SWAP2 SUB SWAP1 RETURN JUMPDEST CALLVALUE DUP1 ISZERO PUSH2 0x2C8 JUMPI PUSH1 0x0 DUP1 REVERT JUMPDEST POP PUSH2 0x2E3 PUSH1 0x4 DUP1 CALLDATASIZE SUB DUP2 ADD SWAP1 PUSH2 0x2DE SWAP2 SWAP1 PUSH2 0x88A JUMP JUMPDEST PUSH2 0x59D JUMP JUMPDEST STOP JUMPDEST CALLVALUE DUP1 ISZERO PUSH2 0x2F1 JUMPI PUSH1 0x0 DUP1 REVERT JUMPDEST POP PUSH2 0x30C PUSH1 0x4 DUP1 CALLDATASIZE SUB DUP2 ADD SWAP1 PUSH2 0x307 SWAP2 SWAP1 PUSH2 0x9AC JUMP JUMPDEST PUSH2 0x5AF JUMP JUMPDEST STOP JUMPDEST POP JUMP JUMPDEST PUSH1 0x5 SLOAD DUP2 JUMP JUMPDEST PUSH1 0x0 DUP1 PUSH2 0x322 PUSH2 0x4FC JUMP JUMPDEST SWAP1 POP PUSH1 0x0 PUSH8 0x8AC7230489E80000 DUP3 DUP6 PUSH2 0x33B SWAP2 SWAP1 PUSH2 0xA08 JUMP JUMPDEST PUSH2 0x345 SWAP2 SWAP1 PUSH2 0xA79 JUMP JUMPDEST SWAP1 POP PUSH1 0x0 PUSH8 0x8AC7230489E80000 PUSH1 0x5 SLOAD DUP4 PUSH2 0x360 SWAP2 SWAP1 PUSH2 0xA79 JUMP JUMPDEST PUSH2 0x36A SWAP2 SWAP1 PUSH2 0xA08 JUMP JUMPDEST SWAP1 POP DUP1 DUP6 DUP5 PUSH32 0x6DA30D7FB8616AB3948D5530637477BC5FB2EE3568216AE26F8307898CAB6BC PUSH1 0x40 MLOAD PUSH1 0x40 MLOAD DUP1 SWAP2 SUB SWAP1 LOG4 DUP1 SWAP4 POP POP POP POP SWAP2 SWAP1 POP JUMP JUMPDEST PUSH1 0x0 PUSH2 0x3B1 CALLVALUE PUSH2 0x317 JUMP JUMPDEST SWAP1 POP PUSH1 0x1 PUSH1 0x0 SWAP1 SLOAD SWAP1 PUSH2 0x100 EXP SWAP1 DIV PUSH20 0xFFFFFFFFFFFFFFFFFFFFFFFFFFFFFFFFFFFFFFFF AND PUSH20 0xFFFFFFFFFFFFFFFFFFFFFFFFFFFFFFFFFFFFFFFF AND PUSH4 0x40C10F19 CALLER DUP4 PUSH1 0x40 MLOAD DUP4 PUSH4 0xFFFFFFFF AND PUSH1 0xE0 SHL DUP2 MSTORE PUSH1 0x4 ADD PUSH2 0x410 SWAP3 SWAP2 SWAP1 PUSH2 0xAAA JUMP JUMPDEST PUSH1 0x0 PUSH1 0x40 MLOAD DUP1 DUP4 SUB DUP2 PUSH1 0x0 DUP8 DUP1 EXTCODESIZE ISZERO DUP1 ISZERO PUSH2 0x42A JUMPI PUSH1 0x0 DUP1 REVERT JUMPDEST POP GAS CALL ISZERO DUP1 ISZERO PUSH2 0x43E JUMPI RETURNDATASIZE PUSH1 0x0 DUP1 RETURNDATACOPY RETURNDATASIZE PUSH1 0x0 REVERT JUMPDEST POP POP POP POP POP JUMP JUMPDEST PUSH2 0x44D PUSH2 0x635 JUMP JUMPDEST DUP1 PUSH1 0x3 PUSH1 0x0 PUSH2 0x100 EXP DUP2 SLOAD DUP2 PUSH20 0xFFFFFFFFFFFFFFFFFFFFFFFFFFFFFFFFFFFFFFFF MUL NOT AND SWAP1 DUP4 PUSH20 0xFFFFFFFFFFFFFFFFFFFFFFFFFFFFFFFFFFFFFFFF AND MUL OR SWAP1 SSTORE POP POP JUMP JUMPDEST PUSH2 0x499 PUSH2 0x635 JUMP JUMPDEST DUP1 PUSH1 0x5 DUP2 SWAP1 SSTORE POP POP JUMP JUMPDEST PUSH2 0x4AB PUSH2 0x635 JUMP JUMPDEST PUSH2 0x4B5 PUSH1 0x0 PUSH2 0x6BC JUMP JUMPDEST JUMP JUMPDEST PUSH1 0x6 SLOAD DUP2 JUMP JUMPDEST JUMP JUMPDEST PUSH1 0x0 DUP1 PUSH1 0x0 SWAP1 SLOAD SWAP1 PUSH2 0x100 EXP SWAP1 DIV PUSH20 0xFFFFFFFFFFFFFFFFFFFFFFFFFFFFFFFFFFFFFFFF AND SWAP1 POP SWAP1 JUMP JUMPDEST PUSH2 0x4F0 PUSH2 0x635 JUMP JUMPDEST DUP1 PUSH1 0x4 DUP2 SWAP1 SSTORE POP POP JUMP JUMPDEST JUMP JUMPDEST PUSH1 0x0 DUP1 PUSH1 0x2 PUSH1 0x0 SWAP1 SLOAD SWAP1 PUSH2 0x100 EXP SWAP1 DIV PUSH20 0xFFFFFFFFFFFFFFFFFFFFFFFFFFFFFFFFFFFFFFFF AND PUSH20 0xFFFFFFFFFFFFFFFFFFFFFFFFFFFFFFFFFFFFFFFF AND PUSH4 0xFEAF968C PUSH1 0x40 MLOAD DUP2 PUSH4 0xFFFFFFFF AND PUSH1 0xE0 SHL DUP2 MSTORE PUSH1 0x4 ADD PUSH1 0xA0 PUSH1 0x40 MLOAD DUP1 DUP4 SUB DUP2 DUP7 GAS STATICCALL ISZERO DUP1 ISZERO PUSH2 0x56C JUMPI RETURNDATASIZE PUSH1 0x0 DUP1 RETURNDATACOPY RETURNDATASIZE PUSH1 0x0 REVERT JUMPDEST POP POP POP POP PUSH1 0x40 MLOAD RETURNDATASIZE PUSH1 0x1F NOT PUSH1 0x1F DUP3 ADD AND DUP3 ADD DUP1 PUSH1 0x40 MSTORE POP DUP2 ADD SWAP1 PUSH2 0x590 SWAP2 SWAP1 PUSH2 0xB56 JUMP JUMPDEST POP POP POP SWAP2 POP POP DUP1 SWAP2 POP POP SWAP1 JUMP JUMPDEST PUSH2 0x5A5 PUSH2 0x635 JUMP JUMPDEST DUP1 PUSH1 0x6 DUP2 SWAP1 SSTORE POP POP JUMP JUMPDEST PUSH2 0x5B7 PUSH2 0x635 JUMP JUMPDEST PUSH1 0x0 PUSH20 0xFFFFFFFFFFFFFFFFFFFFFFFFFFFFFFFFFFFFFFFF AND DUP2 PUSH20 0xFFFFFFFFFFFFFFFFFFFFFFFFFFFFFFFFFFFFFFFF AND SUB PUSH2 0x629 JUMPI PUSH1 0x0 PUSH1 0x40 MLOAD PUSH32 0x1E4FBDF700000000000000000000000000000000000000000000000000000000 DUP2 MSTORE PUSH1 0x4 ADD PUSH2 0x620 SWAP2 SWAP1 PUSH2 0x931 JUMP JUMPDEST PUSH1 0x40 MLOAD DUP1 SWAP2 SUB SWAP1 REVERT JUMPDEST PUSH2 0x632 DUP2 PUSH2 0x6BC JUMP JUMPDEST POP JUMP JUMPDEST PUSH2 0x63D PUSH2 0x780 JUMP JUMPDEST PUSH20 0xFFFFFFFFFFFFFFFFFFFFFFFFFFFFFFFFFFFFFFFF AND PUSH2 0x65B PUSH2 0x4BF JUMP JUMPDEST PUSH20 0xFFFFFFFFFFFFFFFFFFFFFFFFFFFFFFFFFFFFFFFF AND EQ PUSH2 0x6BA JUMPI PUSH2 0x67E PUSH2 0x780 JUMP JUMPDEST PUSH1 0x40 MLOAD PUSH32 0x118CDAA700000000000000000000000000000000000000000000000000000000 DUP2 MSTORE PUSH1 0x4 ADD PUSH2 0x6B1 SWAP2 SWAP1 PUSH2 0x931 JUMP JUMPDEST PUSH1 0x40 MLOAD DUP1 SWAP2 SUB SWAP1 REVERT JUMPDEST JUMP JUMPDEST PUSH1 0x0 DUP1 PUSH1 0x0 SWAP1 SLOAD SWAP1 PUSH2 0x100 EXP SWAP1 DIV PUSH20 0xFFFFFFFFFFFFFFFFFFFFFFFFFFFFFFFFFFFFFFFF AND SWAP1 POP DUP2 PUSH1 0x0 DUP1 PUSH2 0x100 EXP DUP2 SLOAD DUP2 PUSH20 0xFFFFFFFFFFFFFFFFFFFFFFFFFFFFFFFFFFFFFFFF MUL NOT AND SWAP1 DUP4 PUSH20 0xFFFFFFFFFFFFFFFFFFFFFFFFFFFFFFFFFFFFFFFF AND MUL OR SWAP1 SSTORE POP DUP2 PUSH20 0xFFFFFFFFFFFFFFFFFFFFFFFFFFFFFFFFFFFFFFFF AND DUP2 PUSH20 0xFFFFFFFFFFFFFFFFFFFFFFFFFFFFFFFFFFFFFFFF AND PUSH32 0x8BE0079C531659141344CD1FD0A4F28419497F9722A3DAAFE3B4186F6B6457E0 PUSH1 0x40 MLOAD PUSH1 0x40 MLOAD DUP1 SWAP2 SUB SWAP1 LOG3 POP POP JUMP JUMPDEST PUSH1 0x0 CALLER SWAP1 POP SWAP1 JUMP JUMPDEST PUSH1 0x0 DUP1 REVERT JUMPDEST PUSH1 0x0 PUSH20 0xFFFFFFFFFFFFFFFFFFFFFFFFFFFFFFFFFFFFFFFF DUP3 AND SWAP1 POP SWAP2 SWAP1 POP JUMP JUMPDEST PUSH1 0x0 PUSH2 0x7B8 DUP3 PUSH2 0x78D JUMP JUMPDEST SWAP1 POP SWAP2 SWAP1 POP JUMP JUMPDEST PUSH1 0x0 PUSH2 0x7CA DUP3 PUSH2 0x7AD JUMP JUMPDEST SWAP1 POP SWAP2 SWAP1 POP JUMP JUMPDEST PUSH2 0x7DA DUP2 PUSH2 0x7BF JUMP JUMPDEST DUP2 EQ PUSH2 0x7E5 JUMPI PUSH1 0x0 DUP1 REVERT JUMPDEST POP JUMP JUMPDEST PUSH1 0x0 DUP2 CALLDATALOAD SWAP1 POP PUSH2 0x7F7 DUP2 PUSH2 0x7D1 JUMP JUMPDEST SWAP3 SWAP2 POP POP JUMP JUMPDEST PUSH1 0x0 PUSH1 0x20 DUP3 DUP5 SUB SLT ISZERO PUSH2 0x813 JUMPI PUSH2 0x812 PUSH2 0x788 JUMP JUMPDEST JUMPDEST PUSH1 0x0 PUSH2 0x821 DUP5 DUP3 DUP6 ADD PUSH2 0x7E8 JUMP JUMPDEST SWAP2 POP POP SWAP3 SWAP2 POP POP JUMP JUMPDEST PUSH1 0x0 DUP2 SWAP1 POP SWAP2 SWAP1 POP JUMP JUMPDEST PUSH2 0x83D DUP2 PUSH2 0x82A JUMP JUMPDEST DUP3 MSTORE POP POP JUMP JUMPDEST PUSH1 0x0 PUSH1 0x20 DUP3 ADD SWAP1 POP PUSH2 0x858 PUSH1 0x0 DUP4 ADD DUP5 PUSH2 0x834 JUMP JUMPDEST SWAP3 SWAP2 POP POP JUMP JUMPDEST PUSH2 0x867 DUP2 PUSH2 0x82A JUMP JUMPDEST DUP2 EQ PUSH2 0x872 JUMPI PUSH1 0x0 DUP1 REVERT JUMPDEST POP JUMP JUMPDEST PUSH1 0x0 DUP2 CALLDATALOAD SWAP1 POP PUSH2 0x884 DUP2 PUSH2 0x85E JUMP JUMPDEST SWAP3 SWAP2 POP POP JUMP JUMPDEST PUSH1 0x0 PUSH1 0x20 DUP3 DUP5 SUB SLT ISZERO PUSH2 0x8A0 JUMPI PUSH2 0x89F PUSH2 0x788 JUMP JUMPDEST JUMPDEST PUSH1 0x0 PUSH2 0x8AE DUP5 DUP3 DUP6 ADD PUSH2 0x875 JUMP JUMPDEST SWAP2 POP POP SWAP3 SWAP2 POP POP JUMP JUMPDEST PUSH1 0x0 PUSH2 0x8C2 DUP3 PUSH2 0x78D JUMP JUMPDEST SWAP1 POP SWAP2 SWAP1 POP JUMP JUMPDEST PUSH2 0x8D2 DUP2 PUSH2 0x8B7 JUMP JUMPDEST DUP2 EQ PUSH2 0x8DD JUMPI PUSH1 0x0 DUP1 REVERT JUMPDEST POP JUMP JUMPDEST PUSH1 0x0 DUP2 CALLDATALOAD SWAP1 POP PUSH2 0x8EF DUP2 PUSH2 0x8C9 JUMP JUMPDEST SWAP3 SWAP2 POP POP JUMP JUMPDEST PUSH1 0x0 PUSH1 0x20 DUP3 DUP5 SUB SLT ISZERO PUSH2 0x90B JUMPI PUSH2 0x90A PUSH2 0x788 JUMP JUMPDEST JUMPDEST PUSH1 0x0 PUSH2 0x919 DUP5 DUP3 DUP6 ADD PUSH2 0x8E0 JUMP JUMPDEST SWAP2 POP POP SWAP3 SWAP2 POP POP JUMP JUMPDEST PUSH2 0x92B DUP2 PUSH2 0x7AD JUMP JUMPDEST DUP3 MSTORE POP POP JUMP JUMPDEST PUSH1 0x0 PUSH1 0x20 DUP3 ADD SWAP1 POP PUSH2 0x946 PUSH1 0x0 DUP4 ADD DUP5 PUSH2 0x922 JUMP JUMPDEST SWAP3 SWAP2 POP POP JUMP JUMPDEST PUSH1 0x0 DUP2 SWAP1 POP SWAP2 SWAP1 POP JUMP JUMPDEST PUSH2 0x95F DUP2 PUSH2 0x94C JUMP JUMPDEST DUP3 MSTORE POP POP JUMP JUMPDEST PUSH1 0x0 PUSH1 0x20 DUP3 ADD SWAP1 POP PUSH2 0x97A PUSH1 0x0 DUP4 ADD DUP5 PUSH2 0x956 JUMP JUMPDEST SWAP3 SWAP2 POP POP JUMP JUMPDEST PUSH2 0x989 DUP2 PUSH2 0x7AD JUMP JUMPDEST DUP2 EQ PUSH2 0x994 JUMPI PUSH1 0x0 DUP1 REVERT JUMPDEST POP JUMP JUMPDEST PUSH1 0x0 DUP2 CALLDATALOAD SWAP1 POP PUSH2 0x9A6 DUP2 PUSH2 0x980 JUMP JUMPDEST SWAP3 SWAP2 POP POP JUMP JUMPDEST PUSH1 0x0 PUSH1 0x20 DUP3 DUP5 SUB SLT ISZERO PUSH2 0x9C2 JUMPI PUSH2 0x9C1 PUSH2 0x788 JUMP JUMPDEST JUMPDEST PUSH1 0x0 PUSH2 0x9D0 DUP5 DUP3 DUP6 ADD PUSH2 0x997 JUMP JUMPDEST SWAP2 POP POP SWAP3 SWAP2 POP POP JUMP JUMPDEST PUSH32 0x4E487B7100000000000000000000000000000000000000000000000000000000 PUSH1 0x0 MSTORE PUSH1 0x11 PUSH1 0x4 MSTORE PUSH1 0x24 PUSH1 0x0 REVERT JUMPDEST PUSH1 0x0 PUSH2 0xA13 DUP3 PUSH2 0x82A JUMP JUMPDEST SWAP2 POP PUSH2 0xA1E DUP4 PUSH2 0x82A JUMP JUMPDEST SWAP3 POP DUP3 DUP3 MUL PUSH2 0xA2C DUP2 PUSH2 0x82A JUMP JUMPDEST SWAP2 POP DUP3 DUP3 DIV DUP5 EQ DUP4 ISZERO OR PUSH2 0xA43 JUMPI PUSH2 0xA42 PUSH2 0x9D9 JUMP JUMPDEST JUMPDEST POP SWAP3 SWAP2 POP POP JUMP JUMPDEST PUSH32 0x4E487B7100000000000000000000000000000000000000000000000000000000 PUSH1 0x0 MSTORE PUSH1 0x12 PUSH1 0x4 MSTORE PUSH1 0x24 PUSH1 0x0 REVERT JUMPDEST PUSH1 0x0 PUSH2 0xA84 DUP3 PUSH2 0x82A JUMP JUMPDEST SWAP2 POP PUSH2 0xA8F DUP4 PUSH2 0x82A JUMP JUMPDEST SWAP3 POP DUP3 PUSH2 0xA9F JUMPI PUSH2 0xA9E PUSH2 0xA4A JUMP JUMPDEST JUMPDEST DUP3 DUP3 DIV SWAP1 POP SWAP3 SWAP2 POP POP JUMP JUMPDEST PUSH1 0x0 PUSH1 0x40 DUP3 ADD SWAP1 POP PUSH2 0xABF PUSH1 0x0 DUP4 ADD DUP6 PUSH2 0x922 JUMP JUMPDEST PUSH2 0xACC PUSH1 0x20 DUP4 ADD DUP5 PUSH2 0x834 JUMP JUMPDEST SWAP4 SWAP3 POP POP POP JUMP JUMPDEST PUSH1 0x0 PUSH10 0xFFFFFFFFFFFFFFFFFFFF DUP3 AND SWAP1 POP SWAP2 SWAP1 POP JUMP JUMPDEST PUSH2 0xAF2 DUP2 PUSH2 0xAD3 JUMP JUMPDEST DUP2 EQ PUSH2 0xAFD JUMPI PUSH1 0x0 DUP1 REVERT JUMPDEST POP JUMP JUMPDEST PUSH1 0x0 DUP2 MLOAD SWAP1 POP PUSH2 0xB0F DUP2 PUSH2 0xAE9 JUMP JUMPDEST SWAP3 SWAP2 POP POP JUMP JUMPDEST PUSH2 0xB1E DUP2 PUSH2 0x94C JUMP JUMPDEST DUP2 EQ PUSH2 0xB29 JUMPI PUSH1 0x0 DUP1 REVERT JUMPDEST POP JUMP JUMPDEST PUSH1 0x0 DUP2 MLOAD SWAP1 POP PUSH2 0xB3B DUP2 PUSH2 0xB15 JUMP JUMPDEST SWAP3 SWAP2 POP POP JUMP JUMPDEST PUSH1 0x0 DUP2 MLOAD SWAP1 POP PUSH2 0xB50 DUP2 PUSH2 0x85E JUMP JUMPDEST SWAP3 SWAP2 POP POP JUMP JUMPDEST PUSH1 0x0 DUP1 PUSH1 0x0 DUP1 PUSH1 0x0 PUSH1 0xA0 DUP7 DUP9 SUB SLT ISZERO PUSH2 0xB72 JUMPI PUSH2 0xB71 PUSH2 0x788 JUMP JUMPDEST JUMPDEST PUSH1 0x0 PUSH2 0xB80 DUP9 DUP3 DUP10 ADD PUSH2 0xB00 JUMP JUMPDEST SWAP6 POP POP PUSH1 0x20 PUSH2 0xB91 DUP9 DUP3 DUP10 ADD PUSH2 0xB2C JUMP JUMPDEST SWAP5 POP POP PUSH1 0x40 PUSH2 0xBA2 DUP9 DUP3 DUP10 ADD PUSH2 0xB41 JUMP JUMPDEST SWAP4 POP POP PUSH1 0x60 PUSH2 0xBB3 DUP9 DUP3 DUP10 ADD PUSH2 0xB41 JUMP JUMPDEST SWAP3 POP POP PUSH1 0x80 PUSH2 0xBC4 DUP9 DUP3 DUP10 ADD PUSH2 0xB00 JUMP JUMPDEST SWAP2 POP POP SWAP3 SWAP6 POP SWAP3 SWAP6 SWAP1 SWAP4 POP JUMP INVALID LOG2 PUSH5 0x6970667358 0x22 SLT KECCAK256 SWAP11 JUMP MOD KECCAK256 DUP2 ADD PUSH18 0x13B999521210B76BCC2AB3FC6102481DA98B CALLDATALOAD PUSH7 0x659CAD889B6473 PUSH16 0x6C634300081400330000000000000000 "},"methodIdentifiers":{"getChainlinkDataFeedLatestAnswer()":"bea4dfb5","owner()":"8da5cb5b","purchaseWinMeNftWithERC20()":"85b5e1fd","purchaseWinMeNftWithNetworkCurrency()":"b09853d3","purchaseWinMeTokenWithERC20(address)":"0f62f5c8","purchaseWinMeTokenWithNetworkCurrency()":"5c762ba4","renounceOwnership()":"715018a6","setNetworkCurrencyPrice(uint256)":"a2f6447c","setTreasuryAddress(address)":"6605bfda","setWinMeNftPrice(uint256)":"d5333ea4","setWinMeTokenPrice(uint256)":"694b386e","transferOwnership(address)":"f2fde38b","winMeNftPrice()":"7cd888d8","winMeTokenAmount(uint256)":"361ee221","winMeTokenPrice()":"2a260730"}}}}}