{
  "_format": "hh-sol-artifact-1",
  "contractName": "SigUtils",
  "sourceName": "src/SigUtils.sol",
  "abi": [
    {
      "inputs": [
        {
          "internalType": "bytes32",
          "name": "_DOMAIN_SEPARATOR",
          "type": "bytes32"
        }
      ],
      "stateMutability": "nonpayable",
      "type": "constructor"
    },
    {
      "inputs": [],
      "name": "PERMIT_TYPEHASH",
      "outputs": [
        {
          "internalType": "bytes32",
          "name": "",
          "type": "bytes32"
        }
      ],
      "stateMutability": "view",
      "type": "function"
    },
    {
      "inputs": [
        {
          "components": [
            {
              "internalType": "address",
              "name": "owner",
              "type": "address"
            },
            {
              "internalType": "address",
              "name": "spender",
              "type": "address"
            },
            {
              "internalType": "uint256",
              "name": "value",
              "type": "uint256"
            },
            {
              "internalType": "uint256",
              "name": "nonce",
              "type": "uint256"
            },
            {
              "internalType": "uint256",
              "name": "deadline",
              "type": "uint256"
            }
          ],
          "internalType": "struct SigUtils.Permit",
          "name": "_permit",
          "type": "tuple"
        }
      ],
      "name": "getTypedDataHash",
      "outputs": [
        {
          "internalType": "bytes32",
          "name": "",
          "type": "bytes32"
        }
      ],
      "stateMutability": "view",
      "type": "function"
    }
  ],
  "bytecode": "0x608060405234801561001057600080fd5b506040516105973803806105978339818101604052810190610032919061007a565b80600081905550506100a7565b600080fd5b6000819050919050565b61005781610044565b811461006257600080fd5b50565b6000815190506100748161004e565b92915050565b6000602082840312156100905761008f61003f565b5b600061009e84828501610065565b91505092915050565b6104e1806100b66000396000f3fe608060405234801561001057600080fd5b50600436106100365760003560e01c806330adf81f1461003b578063ba20b89d14610059575b600080fd5b610043610089565b6040516100509190610175565b60405180910390f35b610073600480360381019061006e9190610350565b6100b0565b6040516100809190610175565b60405180910390f35b7f6e71edae12b1b97f4d1f60370fef10105fa2faae0126114a169c64845d6126c960001b81565b600080546100bd836100eb565b6040516020016100ce9291906103f5565b604051602081830303815290604052805190602001209050919050565b60007f6e71edae12b1b97f4d1f60370fef10105fa2faae0126114a169c64845d6126c960001b8260000151836020015184604001518560600151866080015160405160200161013f9695949392919061044a565b604051602081830303815290604052805190602001209050919050565b6000819050919050565b61016f8161015c565b82525050565b600060208201905061018a6000830184610166565b92915050565b6000604051905090565b600080fd5b600080fd5b6000601f19601f8301169050919050565b7f4e487b7100000000000000000000000000000000000000000000000000000000600052604160045260246000fd5b6101ed826101a4565b810181811067ffffffffffffffff8211171561020c5761020b6101b5565b5b80604052505050565b600061021f610190565b905061022b82826101e4565b919050565b600073ffffffffffffffffffffffffffffffffffffffff82169050919050565b600061025b82610230565b9050919050565b61026b81610250565b811461027657600080fd5b50565b60008135905061028881610262565b92915050565b6000819050919050565b6102a18161028e565b81146102ac57600080fd5b50565b6000813590506102be81610298565b92915050565b600060a082840312156102da576102d961019f565b5b6102e460a0610215565b905060006102f484828501610279565b600083015250602061030884828501610279565b602083015250604061031c848285016102af565b6040830152506060610330848285016102af565b6060830152506080610344848285016102af565b60808301525092915050565b600060a082840312156103665761036561019a565b5b6000610374848285016102c4565b91505092915050565b600081905092915050565b7f1901000000000000000000000000000000000000000000000000000000000000600082015250565b60006103be60028361037d565b91506103c982610388565b600282019050919050565b6000819050919050565b6103ef6103ea8261015c565b6103d4565b82525050565b6000610400826103b1565b915061040c82856103de565b60208201915061041c82846103de565b6020820191508190509392505050565b61043581610250565b82525050565b6104448161028e565b82525050565b600060c08201905061045f6000830189610166565b61046c602083018861042c565b610479604083018761042c565b610486606083018661043b565b610493608083018561043b565b6104a060a083018461043b565b97965050505050505056fea2646970667358221220a6b0c77ebb07ca8c65f6ac85bc742bfafe9377ef56e4f98c7efadfb45517923764736f6c63430008140033",
  "linkReferences": {},
  "deployedLinkReferences": {}
}