{
  "_format": "hh-sol-artifact-1",
  "contractName": "WinMeTokenClaim",
  "sourceName": "src/WinMeEscrow.sol",
  "abi": [
    {
      "inputs": [],
      "stateMutability": "nonpayable",
      "type": "constructor"
    },
    {
      "inputs": [
        {
          "internalType": "address",
          "name": "owner",
          "type": "address"
        }
      ],
      "name": "OwnableInvalidOwner",
      "type": "error"
    },
    {
      "inputs": [
        {
          "internalType": "address",
          "name": "account",
          "type": "address"
        }
      ],
      "name": "OwnableUnauthorizedAccount",
      "type": "error"
    },
    {
      "anonymous": false,
      "inputs": [
        {
          "indexed": true,
          "internalType": "address",
          "name": "previousOwner",
          "type": "address"
        },
        {
          "indexed": true,
          "internalType": "address",
          "name": "newOwner",
          "type": "address"
        }
      ],
      "name": "OwnershipTransferred",
      "type": "event"
    },
    {
      "anonymous": false,
      "inputs": [
        {
          "indexed": true,
          "internalType": "address",
          "name": "token",
          "type": "address"
        },
        {
          "indexed": true,
          "internalType": "bool",
          "name": "approvedStatus",
          "type": "bool"
        }
      ],
      "name": "TokenApproved",
      "type": "event"
    },
    {
      "inputs": [
        {
          "internalType": "address",
          "name": "",
          "type": "address"
        }
      ],
      "name": "approvedTokens",
      "outputs": [
        {
          "internalType": "bool",
          "name": "",
          "type": "bool"
        }
      ],
      "stateMutability": "view",
      "type": "function"
    },
    {
      "inputs": [],
      "name": "claimTokenWithPermit",
      "outputs": [],
      "stateMutability": "nonpayable",
      "type": "function"
    },
    {
      "inputs": [],
      "name": "number",
      "outputs": [
        {
          "internalType": "uint256",
          "name": "",
          "type": "uint256"
        }
      ],
      "stateMutability": "view",
      "type": "function"
    },
    {
      "inputs": [],
      "name": "owner",
      "outputs": [
        {
          "internalType": "address",
          "name": "",
          "type": "address"
        }
      ],
      "stateMutability": "view",
      "type": "function"
    },
    {
      "inputs": [],
      "name": "payGameEntranceFee",
      "outputs": [],
      "stateMutability": "nonpayable",
      "type": "function"
    },
    {
      "inputs": [],
      "name": "renounceOwnership",
      "outputs": [],
      "stateMutability": "nonpayable",
      "type": "function"
    },
    {
      "inputs": [
        {
          "internalType": "address",
          "name": "token",
          "type": "address"
        }
      ],
      "name": "togglePaymentToken",
      "outputs": [],
      "stateMutability": "nonpayable",
      "type": "function"
    },
    {
      "inputs": [
        {
          "internalType": "address",
          "name": "newOwner",
          "type": "address"
        }
      ],
      "name": "transferOwnership",
      "outputs": [],
      "stateMutability": "nonpayable",
      "type": "function"
    },
    {
      "inputs": [
        {
          "internalType": "address",
          "name": "",
          "type": "address"
        }
      ],
      "name": "winnings",
      "outputs": [
        {
          "internalType": "uint256",
          "name": "",
          "type": "uint256"
        }
      ],
      "stateMutability": "view",
      "type": "function"
    },
    {
      "inputs": [
        {
          "internalType": "address",
          "name": "token",
          "type": "address"
        },
        {
          "internalType": "uint256",
          "name": "tokenAmount",
          "type": "uint256"
        }
      ],
      "name": "withdrawStuckTokens",
      "outputs": [],
      "stateMutability": "nonpayable",
      "type": "function"
    }
  ],
  "bytecode": "0x608060405234801561001057600080fd5b5033600073ffffffffffffffffffffffffffffffffffffffff168173ffffffffffffffffffffffffffffffffffffffff16036100845760006040517f1e4fbdf700000000000000000000000000000000000000000000000000000000815260040161007b919061019e565b60405180910390fd5b6100938161009960201b60201c565b506101b9565b60008060009054906101000a900473ffffffffffffffffffffffffffffffffffffffff169050816000806101000a81548173ffffffffffffffffffffffffffffffffffffffff021916908373ffffffffffffffffffffffffffffffffffffffff1602179055508173ffffffffffffffffffffffffffffffffffffffff168173ffffffffffffffffffffffffffffffffffffffff167f8be0079c531659141344cd1fd0a4f28419497f9722a3daafe3b4186f6b6457e060405160405180910390a35050565b600073ffffffffffffffffffffffffffffffffffffffff82169050919050565b60006101888261015d565b9050919050565b6101988161017d565b82525050565b60006020820190506101b3600083018461018f565b92915050565b61071c806101c86000396000f3fe608060405234801561001057600080fd5b506004361061009e5760003560e01c80638da5cb5b116100665780638da5cb5b1461010f57806398258f9c1461012d578063bd61f0a614610149578063ea3a149914610165578063f2fde38b146101955761009e565b806334e031dd146100a357806355e256f9146100ad5780636d1ea3fa146100b7578063715018a6146100e75780638381f58a146100f1575b600080fd5b6100ab6101b1565b005b6100b56101b3565b005b6100d160048036038101906100cc91906105b9565b6101b5565b6040516100de9190610601565b60405180910390f35b6100ef6101d5565b005b6100f96101e9565b6040516101069190610635565b60405180910390f35b6101176101ef565b604051610124919061065f565b60405180910390f35b610147600480360381019061014291906105b9565b610218565b005b610163600480360381019061015e91906106a6565b610359565b005b61017f600480360381019061017a91906105b9565b610365565b60405161018c9190610635565b60405180910390f35b6101af60048036038101906101aa91906105b9565b61037d565b005b565b565b60026020528060005260406000206000915054906101000a900460ff1681565b6101dd610403565b6101e7600061048a565b565b60015481565b60008060009054906101000a900473ffffffffffffffffffffffffffffffffffffffff16905090565b610220610403565b600260008273ffffffffffffffffffffffffffffffffffffffff1673ffffffffffffffffffffffffffffffffffffffff16815260200190815260200160002060009054906101000a900460ff1615600260008373ffffffffffffffffffffffffffffffffffffffff1673ffffffffffffffffffffffffffffffffffffffff16815260200190815260200160002060006101000a81548160ff021916908315150217905550600260008273ffffffffffffffffffffffffffffffffffffffff1673ffffffffffffffffffffffffffffffffffffffff16815260200190815260200160002060009054906101000a900460ff1615158173ffffffffffffffffffffffffffffffffffffffff167f54aee4f020b814c26f556399a354577e068193a82445e919505b00b9848512a560405160405180910390a350565b610361610403565b5050565b60036020528060005260406000206000915090505481565b610385610403565b600073ffffffffffffffffffffffffffffffffffffffff168173ffffffffffffffffffffffffffffffffffffffff16036103f75760006040517f1e4fbdf70000000000000000000000000000000000000000000000000000000081526004016103ee919061065f565b60405180910390fd5b6104008161048a565b50565b61040b61054e565b73ffffffffffffffffffffffffffffffffffffffff166104296101ef565b73ffffffffffffffffffffffffffffffffffffffff16146104885761044c61054e565b6040517f118cdaa700000000000000000000000000000000000000000000000000000000815260040161047f919061065f565b60405180910390fd5b565b60008060009054906101000a900473ffffffffffffffffffffffffffffffffffffffff169050816000806101000a81548173ffffffffffffffffffffffffffffffffffffffff021916908373ffffffffffffffffffffffffffffffffffffffff1602179055508173ffffffffffffffffffffffffffffffffffffffff168173ffffffffffffffffffffffffffffffffffffffff167f8be0079c531659141344cd1fd0a4f28419497f9722a3daafe3b4186f6b6457e060405160405180910390a35050565b600033905090565b600080fd5b600073ffffffffffffffffffffffffffffffffffffffff82169050919050565b60006105868261055b565b9050919050565b6105968161057b565b81146105a157600080fd5b50565b6000813590506105b38161058d565b92915050565b6000602082840312156105cf576105ce610556565b5b60006105dd848285016105a4565b91505092915050565b60008115159050919050565b6105fb816105e6565b82525050565b600060208201905061061660008301846105f2565b92915050565b6000819050919050565b61062f8161061c565b82525050565b600060208201905061064a6000830184610626565b92915050565b6106598161057b565b82525050565b60006020820190506106746000830184610650565b92915050565b6106838161061c565b811461068e57600080fd5b50565b6000813590506106a08161067a565b92915050565b600080604083850312156106bd576106bc610556565b5b60006106cb858286016105a4565b92505060206106dc85828601610691565b915050925092905056fea2646970667358221220bbd33257ac5d36d5507fe4b486913af5b52159ec1396c89ab0e2792851446ac464736f6c63430008140033",
  "linkReferences": {},
  "deployedLinkReferences": {}
}