{
  "_format": "hh-sol-artifact-1",
  "contractName": "WinMeStore",
  "sourceName": "src/WinMeStore.sol",
  "abi": [
    {
      "inputs": [
        {
          "internalType": "address payable",
          "name": "_treasuryAddress",
          "type": "address"
        },
        {
          "internalType": "contract IWinMeToken",
          "name": "_winMeTokenAddress",
          "type": "address"
        },
        {
          "internalType": "contract IAggregatorV3",
          "name": "_aggregatorAddress",
          "type": "address"
        }
      ],
      "stateMutability": "nonpayable",
      "type": "constructor"
    },
    {
      "inputs": [
        {
          "internalType": "address",
          "name": "owner",
          "type": "address"
        }
      ],
      "name": "OwnableInvalidOwner",
      "type": "error"
    },
    {
      "inputs": [
        {
          "internalType": "address",
          "name": "account",
          "type": "address"
        }
      ],
      "name": "OwnableUnauthorizedAccount",
      "type": "error"
    },
    {
      "anonymous": false,
      "inputs": [
        {
          "indexed": true,
          "internalType": "address",
          "name": "previousOwner",
          "type": "address"
        },
        {
          "indexed": true,
          "internalType": "address",
          "name": "newOwner",
          "type": "address"
        }
      ],
      "name": "OwnershipTransferred",
      "type": "event"
    },
    {
      "anonymous": false,
      "inputs": [
        {
          "indexed": true,
          "internalType": "uint256",
          "name": "currencyUsdPrice",
          "type": "uint256"
        },
        {
          "indexed": true,
          "internalType": "uint256",
          "name": "currencyAmount",
          "type": "uint256"
        },
        {
          "indexed": true,
          "internalType": "uint256",
          "name": "winMeTokenReceived",
          "type": "uint256"
        }
      ],
      "name": "WinMeTokenPurchasedWithNetworkCurrency",
      "type": "event"
    },
    {
      "inputs": [],
      "name": "getChainlinkDataFeedLatestAnswer",
      "outputs": [
        {
          "internalType": "int256",
          "name": "",
          "type": "int256"
        }
      ],
      "stateMutability": "view",
      "type": "function"
    },
    {
      "inputs": [],
      "name": "owner",
      "outputs": [
        {
          "internalType": "address",
          "name": "",
          "type": "address"
        }
      ],
      "stateMutability": "view",
      "type": "function"
    },
    {
      "inputs": [],
      "name": "purchaseWinMeNftWithERC20",
      "outputs": [],
      "stateMutability": "nonpayable",
      "type": "function"
    },
    {
      "inputs": [],
      "name": "purchaseWinMeNftWithNetworkCurrency",
      "outputs": [],
      "stateMutability": "payable",
      "type": "function"
    },
    {
      "inputs": [
        {
          "internalType": "contract IERC20",
          "name": "_tokenAddress",
          "type": "address"
        }
      ],
      "name": "purchaseWinMeTokenWithERC20",
      "outputs": [],
      "stateMutability": "nonpayable",
      "type": "function"
    },
    {
      "inputs": [],
      "name": "purchaseWinMeTokenWithNetworkCurrency",
      "outputs": [],
      "stateMutability": "payable",
      "type": "function"
    },
    {
      "inputs": [],
      "name": "renounceOwnership",
      "outputs": [],
      "stateMutability": "nonpayable",
      "type": "function"
    },
    {
      "inputs": [
        {
          "internalType": "uint256",
          "name": "_newPrice",
          "type": "uint256"
        }
      ],
      "name": "setNetworkCurrencyPrice",
      "outputs": [],
      "stateMutability": "nonpayable",
      "type": "function"
    },
    {
      "inputs": [
        {
          "internalType": "address payable",
          "name": "_newTreasuryAddress",
          "type": "address"
        }
      ],
      "name": "setTreasuryAddress",
      "outputs": [],
      "stateMutability": "nonpayable",
      "type": "function"
    },
    {
      "inputs": [
        {
          "internalType": "uint256",
          "name": "_newWinMeNftPrice",
          "type": "uint256"
        }
      ],
      "name": "setWinMeNftPrice",
      "outputs": [],
      "stateMutability": "nonpayable",
      "type": "function"
    },
    {
      "inputs": [
        {
          "internalType": "uint256",
          "name": "_newWinMeTokenPrice",
          "type": "uint256"
        }
      ],
      "name": "setWinMeTokenPrice",
      "outputs": [],
      "stateMutability": "nonpayable",
      "type": "function"
    },
    {
      "inputs": [
        {
          "internalType": "address",
          "name": "newOwner",
          "type": "address"
        }
      ],
      "name": "transferOwnership",
      "outputs": [],
      "stateMutability": "nonpayable",
      "type": "function"
    },
    {
      "inputs": [],
      "name": "winMeNftPrice",
      "outputs": [
        {
          "internalType": "uint256",
          "name": "",
          "type": "uint256"
        }
      ],
      "stateMutability": "view",
      "type": "function"
    },
    {
      "inputs": [
        {
          "internalType": "uint256",
          "name": "currencyAmount",
          "type": "uint256"
        }
      ],
      "name": "winMeTokenAmount",
      "outputs": [
        {
          "internalType": "uint256",
          "name": "",
          "type": "uint256"
        }
      ],
      "stateMutability": "nonpayable",
      "type": "function"
    },
    {
      "inputs": [],
      "name": "winMeTokenPrice",
      "outputs": [
        {
          "internalType": "uint256",
          "name": "",
          "type": "uint256"
        }
      ],
      "stateMutability": "view",
      "type": "function"
    }
  ],
  "bytecode": "0x6080604052630bebc200600555633b9aca006006553480156200002157600080fd5b506040516200100838038062001008833981810160405281019062000047919062000367565b33600073ffffffffffffffffffffffffffffffffffffffff168173ffffffffffffffffffffffffffffffffffffffff1603620000bd5760006040517f1e4fbdf7000000000000000000000000000000000000000000000000000000008152600401620000b49190620003d4565b60405180910390fd5b620000ce816200019b60201b60201c565b5081600160006101000a81548173ffffffffffffffffffffffffffffffffffffffff021916908373ffffffffffffffffffffffffffffffffffffffff16021790555080600260006101000a81548173ffffffffffffffffffffffffffffffffffffffff021916908373ffffffffffffffffffffffffffffffffffffffff16021790555082600360006101000a81548173ffffffffffffffffffffffffffffffffffffffff021916908373ffffffffffffffffffffffffffffffffffffffff160217905550505050620003f1565b60008060009054906101000a900473ffffffffffffffffffffffffffffffffffffffff169050816000806101000a81548173ffffffffffffffffffffffffffffffffffffffff021916908373ffffffffffffffffffffffffffffffffffffffff1602179055508173ffffffffffffffffffffffffffffffffffffffff168173ffffffffffffffffffffffffffffffffffffffff167f8be0079c531659141344cd1fd0a4f28419497f9722a3daafe3b4186f6b6457e060405160405180910390a35050565b600080fd5b600073ffffffffffffffffffffffffffffffffffffffff82169050919050565b6000620002918262000264565b9050919050565b620002a38162000284565b8114620002af57600080fd5b50565b600081519050620002c38162000298565b92915050565b6000620002d68262000264565b9050919050565b6000620002ea82620002c9565b9050919050565b620002fc81620002dd565b81146200030857600080fd5b50565b6000815190506200031c81620002f1565b92915050565b60006200032f82620002c9565b9050919050565b620003418162000322565b81146200034d57600080fd5b50565b600081519050620003618162000336565b92915050565b6000806000606084860312156200038357620003826200025f565b5b60006200039386828701620002b2565b9350506020620003a6868287016200030b565b9250506040620003b98682870162000350565b9150509250925092565b620003ce81620002c9565b82525050565b6000602082019050620003eb6000830184620003c3565b92915050565b610c0780620004016000396000f3fe6080604052600436106100e85760003560e01c80637cd888d81161008a578063b09853d311610059578063b09853d314610287578063bea4dfb514610291578063d5333ea4146102bc578063f2fde38b146102e5576100e8565b80637cd888d8146101f157806385b5e1fd1461021c5780638da5cb5b14610233578063a2f6447c1461025e576100e8565b80635c762ba4116100c65780635c762ba41461017e5780636605bfda14610188578063694b386e146101b1578063715018a6146101da576100e8565b80630f62f5c8146100ed5780632a26073014610116578063361ee22114610141575b600080fd5b3480156100f957600080fd5b50610114600480360381019061010f91906107fd565b61030e565b005b34801561012257600080fd5b5061012b610311565b6040516101389190610843565b60405180910390f35b34801561014d57600080fd5b506101686004803603810190610163919061088a565b610317565b6040516101759190610843565b60405180910390f35b6101866103a6565b005b34801561019457600080fd5b506101af60048036038101906101aa91906108f5565b610445565b005b3480156101bd57600080fd5b506101d860048036038101906101d3919061088a565b610491565b005b3480156101e657600080fd5b506101ef6104a3565b005b3480156101fd57600080fd5b506102066104b7565b6040516102139190610843565b60405180910390f35b34801561022857600080fd5b506102316104bd565b005b34801561023f57600080fd5b506102486104bf565b6040516102559190610931565b60405180910390f35b34801561026a57600080fd5b506102856004803603810190610280919061088a565b6104e8565b005b61028f6104fa565b005b34801561029d57600080fd5b506102a66104fc565b6040516102b39190610965565b60405180910390f35b3480156102c857600080fd5b506102e360048036038101906102de919061088a565b61059d565b005b3480156102f157600080fd5b5061030c600480360381019061030791906109ac565b6105af565b005b50565b60055481565b6000806103226104fc565b90506000678ac7230489e80000828561033b9190610a08565b6103459190610a79565b90506000678ac7230489e80000600554836103609190610a79565b61036a9190610a08565b90508085847f06da30d7fb8616ab3948d5530637477bc5fb2ee3568216ae26f8307898cab6bc60405160405180910390a4809350505050919050565b60006103b134610317565b9050600160009054906101000a900473ffffffffffffffffffffffffffffffffffffffff1673ffffffffffffffffffffffffffffffffffffffff166340c10f1933836040518363ffffffff1660e01b8152600401610410929190610aaa565b600060405180830381600087803b15801561042a57600080fd5b505af115801561043e573d6000803e3d6000fd5b5050505050565b61044d610635565b80600360006101000a81548173ffffffffffffffffffffffffffffffffffffffff021916908373ffffffffffffffffffffffffffffffffffffffff16021790555050565b610499610635565b8060058190555050565b6104ab610635565b6104b560006106bc565b565b60065481565b565b60008060009054906101000a900473ffffffffffffffffffffffffffffffffffffffff16905090565b6104f0610635565b8060048190555050565b565b600080600260009054906101000a900473ffffffffffffffffffffffffffffffffffffffff1673ffffffffffffffffffffffffffffffffffffffff1663feaf968c6040518163ffffffff1660e01b815260040160a060405180830381865afa15801561056c573d6000803e3d6000fd5b505050506040513d601f19601f820116820180604052508101906105909190610b56565b5050509150508091505090565b6105a5610635565b8060068190555050565b6105b7610635565b600073ffffffffffffffffffffffffffffffffffffffff168173ffffffffffffffffffffffffffffffffffffffff16036106295760006040517f1e4fbdf70000000000000000000000000000000000000000000000000000000081526004016106209190610931565b60405180910390fd5b610632816106bc565b50565b61063d610780565b73ffffffffffffffffffffffffffffffffffffffff1661065b6104bf565b73ffffffffffffffffffffffffffffffffffffffff16146106ba5761067e610780565b6040517f118cdaa70000000000000000000000000000000000000000000000000000000081526004016106b19190610931565b60405180910390fd5b565b60008060009054906101000a900473ffffffffffffffffffffffffffffffffffffffff169050816000806101000a81548173ffffffffffffffffffffffffffffffffffffffff021916908373ffffffffffffffffffffffffffffffffffffffff1602179055508173ffffffffffffffffffffffffffffffffffffffff168173ffffffffffffffffffffffffffffffffffffffff167f8be0079c531659141344cd1fd0a4f28419497f9722a3daafe3b4186f6b6457e060405160405180910390a35050565b600033905090565b600080fd5b600073ffffffffffffffffffffffffffffffffffffffff82169050919050565b60006107b88261078d565b9050919050565b60006107ca826107ad565b9050919050565b6107da816107bf565b81146107e557600080fd5b50565b6000813590506107f7816107d1565b92915050565b60006020828403121561081357610812610788565b5b6000610821848285016107e8565b91505092915050565b6000819050919050565b61083d8161082a565b82525050565b60006020820190506108586000830184610834565b92915050565b6108678161082a565b811461087257600080fd5b50565b6000813590506108848161085e565b92915050565b6000602082840312156108a05761089f610788565b5b60006108ae84828501610875565b91505092915050565b60006108c28261078d565b9050919050565b6108d2816108b7565b81146108dd57600080fd5b50565b6000813590506108ef816108c9565b92915050565b60006020828403121561090b5761090a610788565b5b6000610919848285016108e0565b91505092915050565b61092b816107ad565b82525050565b60006020820190506109466000830184610922565b92915050565b6000819050919050565b61095f8161094c565b82525050565b600060208201905061097a6000830184610956565b92915050565b610989816107ad565b811461099457600080fd5b50565b6000813590506109a681610980565b92915050565b6000602082840312156109c2576109c1610788565b5b60006109d084828501610997565b91505092915050565b7f4e487b7100000000000000000000000000000000000000000000000000000000600052601160045260246000fd5b6000610a138261082a565b9150610a1e8361082a565b9250828202610a2c8161082a565b91508282048414831517610a4357610a426109d9565b5b5092915050565b7f4e487b7100000000000000000000000000000000000000000000000000000000600052601260045260246000fd5b6000610a848261082a565b9150610a8f8361082a565b925082610a9f57610a9e610a4a565b5b828204905092915050565b6000604082019050610abf6000830185610922565b610acc6020830184610834565b9392505050565b600069ffffffffffffffffffff82169050919050565b610af281610ad3565b8114610afd57600080fd5b50565b600081519050610b0f81610ae9565b92915050565b610b1e8161094c565b8114610b2957600080fd5b50565b600081519050610b3b81610b15565b92915050565b600081519050610b508161085e565b92915050565b600080600080600060a08688031215610b7257610b71610788565b5b6000610b8088828901610b00565b9550506020610b9188828901610b2c565b9450506040610ba288828901610b41565b9350506060610bb388828901610b41565b9250506080610bc488828901610b00565b915050929550929590935056fea26469706673582212209a56062081017113b999521210b76bcc2ab3fc6102481da98b3566659cad889b64736f6c63430008140033",
  "linkReferences": {},
  "deployedLinkReferences": {}
}