{
  "_format": "hh-sol-artifact-1",
  "contractName": "WinMeToken",
  "sourceName": "src/WinMeToken.sol",
  "abi": [
    {
      "inputs": [],
      "stateMutability": "nonpayable",
      "type": "constructor"
    },
    {
      "inputs": [],
      "name": "AccessControlBadConfirmation",
      "type": "error"
    },
    {
      "inputs": [
        {
          "internalType": "address",
          "name": "account",
          "type": "address"
        },
        {
          "internalType": "bytes32",
          "name": "neededRole",
          "type": "bytes32"
        }
      ],
      "name": "AccessControlUnauthorizedAccount",
      "type": "error"
    },
    {
      "inputs": [
        {
          "internalType": "address",
          "name": "owner",
          "type": "address"
        }
      ],
      "name": "OwnableInvalidOwner",
      "type": "error"
    },
    {
      "inputs": [
        {
          "internalType": "address",
          "name": "account",
          "type": "address"
        }
      ],
      "name": "OwnableUnauthorizedAccount",
      "type": "error"
    },
    {
      "anonymous": false,
      "inputs": [
        {
          "indexed": true,
          "internalType": "address",
          "name": "owner",
          "type": "address"
        },
        {
          "indexed": true,
          "internalType": "address",
          "name": "spender",
          "type": "address"
        },
        {
          "indexed": false,
          "internalType": "uint256",
          "name": "amount",
          "type": "uint256"
        }
      ],
      "name": "Approval",
      "type": "event"
    },
    {
      "anonymous": false,
      "inputs": [
        {
          "indexed": true,
          "internalType": "address",
          "name": "previousOwner",
          "type": "address"
        },
        {
          "indexed": true,
          "internalType": "address",
          "name": "newOwner",
          "type": "address"
        }
      ],
      "name": "OwnershipTransferred",
      "type": "event"
    },
    {
      "anonymous": false,
      "inputs": [
        {
          "indexed": true,
          "internalType": "bytes32",
          "name": "role",
          "type": "bytes32"
        },
        {
          "indexed": true,
          "internalType": "bytes32",
          "name": "previousAdminRole",
          "type": "bytes32"
        },
        {
          "indexed": true,
          "internalType": "bytes32",
          "name": "newAdminRole",
          "type": "bytes32"
        }
      ],
      "name": "RoleAdminChanged",
      "type": "event"
    },
    {
      "anonymous": false,
      "inputs": [
        {
          "indexed": true,
          "internalType": "bytes32",
          "name": "role",
          "type": "bytes32"
        },
        {
          "indexed": true,
          "internalType": "address",
          "name": "account",
          "type": "address"
        },
        {
          "indexed": true,
          "internalType": "address",
          "name": "sender",
          "type": "address"
        }
      ],
      "name": "RoleGranted",
      "type": "event"
    },
    {
      "anonymous": false,
      "inputs": [
        {
          "indexed": true,
          "internalType": "bytes32",
          "name": "role",
          "type": "bytes32"
        },
        {
          "indexed": true,
          "internalType": "address",
          "name": "account",
          "type": "address"
        },
        {
          "indexed": true,
          "internalType": "address",
          "name": "sender",
          "type": "address"
        }
      ],
      "name": "RoleRevoked",
      "type": "event"
    },
    {
      "anonymous": false,
      "inputs": [
        {
          "indexed": true,
          "internalType": "address",
          "name": "from",
          "type": "address"
        },
        {
          "indexed": true,
          "internalType": "address",
          "name": "to",
          "type": "address"
        },
        {
          "indexed": false,
          "internalType": "uint256",
          "name": "amount",
          "type": "uint256"
        }
      ],
      "name": "Transfer",
      "type": "event"
    },
    {
      "inputs": [],
      "name": "DEFAULT_ADMIN_ROLE",
      "outputs": [
        {
          "internalType": "bytes32",
          "name": "",
          "type": "bytes32"
        }
      ],
      "stateMutability": "view",
      "type": "function"
    },
    {
      "inputs": [],
      "name": "DOMAIN_SEPARATOR",
      "outputs": [
        {
          "internalType": "bytes32",
          "name": "",
          "type": "bytes32"
        }
      ],
      "stateMutability": "view",
      "type": "function"
    },
    {
      "inputs": [],
      "name": "MINTER_ROLE",
      "outputs": [
        {
          "internalType": "bytes32",
          "name": "",
          "type": "bytes32"
        }
      ],
      "stateMutability": "view",
      "type": "function"
    },
    {
      "inputs": [
        {
          "internalType": "address",
          "name": "",
          "type": "address"
        },
        {
          "internalType": "address",
          "name": "",
          "type": "address"
        }
      ],
      "name": "allowance",
      "outputs": [
        {
          "internalType": "uint256",
          "name": "",
          "type": "uint256"
        }
      ],
      "stateMutability": "view",
      "type": "function"
    },
    {
      "inputs": [
        {
          "internalType": "address",
          "name": "spender",
          "type": "address"
        },
        {
          "internalType": "uint256",
          "name": "amount",
          "type": "uint256"
        }
      ],
      "name": "approve",
      "outputs": [
        {
          "internalType": "bool",
          "name": "",
          "type": "bool"
        }
      ],
      "stateMutability": "nonpayable",
      "type": "function"
    },
    {
      "inputs": [
        {
          "internalType": "address",
          "name": "",
          "type": "address"
        }
      ],
      "name": "balanceOf",
      "outputs": [
        {
          "internalType": "uint256",
          "name": "",
          "type": "uint256"
        }
      ],
      "stateMutability": "view",
      "type": "function"
    },
    {
      "inputs": [],
      "name": "decimals",
      "outputs": [
        {
          "internalType": "uint8",
          "name": "",
          "type": "uint8"
        }
      ],
      "stateMutability": "view",
      "type": "function"
    },
    {
      "inputs": [
        {
          "internalType": "bytes32",
          "name": "role",
          "type": "bytes32"
        }
      ],
      "name": "getRoleAdmin",
      "outputs": [
        {
          "internalType": "bytes32",
          "name": "",
          "type": "bytes32"
        }
      ],
      "stateMutability": "view",
      "type": "function"
    },
    {
      "inputs": [
        {
          "internalType": "address",
          "name": "minter",
          "type": "address"
        }
      ],
      "name": "grantMinterRole",
      "outputs": [],
      "stateMutability": "nonpayable",
      "type": "function"
    },
    {
      "inputs": [
        {
          "internalType": "bytes32",
          "name": "role",
          "type": "bytes32"
        },
        {
          "internalType": "address",
          "name": "account",
          "type": "address"
        }
      ],
      "name": "grantRole",
      "outputs": [],
      "stateMutability": "nonpayable",
      "type": "function"
    },
    {
      "inputs": [
        {
          "internalType": "bytes32",
          "name": "role",
          "type": "bytes32"
        },
        {
          "internalType": "address",
          "name": "account",
          "type": "address"
        }
      ],
      "name": "hasRole",
      "outputs": [
        {
          "internalType": "bool",
          "name": "",
          "type": "bool"
        }
      ],
      "stateMutability": "view",
      "type": "function"
    },
    {
      "inputs": [
        {
          "internalType": "address",
          "name": "to",
          "type": "address"
        },
        {
          "internalType": "uint256",
          "name": "amount",
          "type": "uint256"
        }
      ],
      "name": "mint",
      "outputs": [],
      "stateMutability": "nonpayable",
      "type": "function"
    },
    {
      "inputs": [],
      "name": "name",
      "outputs": [
        {
          "internalType": "string",
          "name": "",
          "type": "string"
        }
      ],
      "stateMutability": "view",
      "type": "function"
    },
    {
      "inputs": [
        {
          "internalType": "address",
          "name": "",
          "type": "address"
        }
      ],
      "name": "nonces",
      "outputs": [
        {
          "internalType": "uint256",
          "name": "",
          "type": "uint256"
        }
      ],
      "stateMutability": "view",
      "type": "function"
    },
    {
      "inputs": [],
      "name": "owner",
      "outputs": [
        {
          "internalType": "address",
          "name": "",
          "type": "address"
        }
      ],
      "stateMutability": "view",
      "type": "function"
    },
    {
      "inputs": [
        {
          "internalType": "address",
          "name": "owner",
          "type": "address"
        },
        {
          "internalType": "address",
          "name": "spender",
          "type": "address"
        },
        {
          "internalType": "uint256",
          "name": "value",
          "type": "uint256"
        },
        {
          "internalType": "uint256",
          "name": "deadline",
          "type": "uint256"
        },
        {
          "internalType": "uint8",
          "name": "v",
          "type": "uint8"
        },
        {
          "internalType": "bytes32",
          "name": "r",
          "type": "bytes32"
        },
        {
          "internalType": "bytes32",
          "name": "s",
          "type": "bytes32"
        }
      ],
      "name": "permit",
      "outputs": [],
      "stateMutability": "nonpayable",
      "type": "function"
    },
    {
      "inputs": [],
      "name": "renounceOwnership",
      "outputs": [],
      "stateMutability": "nonpayable",
      "type": "function"
    },
    {
      "inputs": [
        {
          "internalType": "bytes32",
          "name": "role",
          "type": "bytes32"
        },
        {
          "internalType": "address",
          "name": "callerConfirmation",
          "type": "address"
        }
      ],
      "name": "renounceRole",
      "outputs": [],
      "stateMutability": "nonpayable",
      "type": "function"
    },
    {
      "inputs": [
        {
          "internalType": "bytes32",
          "name": "role",
          "type": "bytes32"
        },
        {
          "internalType": "address",
          "name": "account",
          "type": "address"
        }
      ],
      "name": "revokeRole",
      "outputs": [],
      "stateMutability": "nonpayable",
      "type": "function"
    },
    {
      "inputs": [
        {
          "internalType": "bytes4",
          "name": "interfaceId",
          "type": "bytes4"
        }
      ],
      "name": "supportsInterface",
      "outputs": [
        {
          "internalType": "bool",
          "name": "",
          "type": "bool"
        }
      ],
      "stateMutability": "view",
      "type": "function"
    },
    {
      "inputs": [],
      "name": "symbol",
      "outputs": [
        {
          "internalType": "string",
          "name": "",
          "type": "string"
        }
      ],
      "stateMutability": "view",
      "type": "function"
    },
    {
      "inputs": [],
      "name": "totalSupply",
      "outputs": [
        {
          "internalType": "uint256",
          "name": "",
          "type": "uint256"
        }
      ],
      "stateMutability": "view",
      "type": "function"
    },
    {
      "inputs": [
        {
          "internalType": "address",
          "name": "to",
          "type": "address"
        },
        {
          "internalType": "uint256",
          "name": "amount",
          "type": "uint256"
        }
      ],
      "name": "transfer",
      "outputs": [
        {
          "internalType": "bool",
          "name": "",
          "type": "bool"
        }
      ],
      "stateMutability": "nonpayable",
      "type": "function"
    },
    {
      "inputs": [
        {
          "internalType": "address",
          "name": "from",
          "type": "address"
        },
        {
          "internalType": "address",
          "name": "to",
          "type": "address"
        },
        {
          "internalType": "uint256",
          "name": "amount",
          "type": "uint256"
        }
      ],
      "name": "transferFrom",
      "outputs": [
        {
          "internalType": "bool",
          "name": "",
          "type": "bool"
        }
      ],
      "stateMutability": "nonpayable",
      "type": "function"
    },
    {
      "inputs": [
        {
          "internalType": "address",
          "name": "newOwner",
          "type": "address"
        }
      ],
      "name": "transferOwnership",
      "outputs": [],
      "stateMutability": "nonpayable",
      "type": "function"
    }
  ],
  "bytecode": "0x60e06040523480156200001157600080fd5b50336040518060400160405280600a81526020017f57696e4d65546f6b656e000000000000000000000000000000000000000000008152506040518060400160405280600381526020017f574d54000000000000000000000000000000000000000000000000000000000081525060128260009081620000929190620006f2565b508160019081620000a49190620006f2565b508060ff1660808160ff16815250504660a08181525050620000cb620001ab60201b60201c565b60c08181525050505050600073ffffffffffffffffffffffffffffffffffffffff168173ffffffffffffffffffffffffffffffffffffffff16036200014a5760006040517f1e4fbdf70000000000000000000000000000000000000000000000000000000081526004016200014191906200081e565b60405180910390fd5b6200015b816200023b60201b60201c565b50620001716000801b336200030160201b60201c565b50620001a47f9f2df0fed2c77648de5860a4cc508cd0818c85b8b8a1ab4ceeef8d981c8956a6336200030160201b60201c565b506200098c565b60007f8b73c3c69bb8fe3d512ecc4cf759cc79239f7b179b0ffacaa9a75d522b39400f6000604051620001df9190620008ea565b60405180910390207fc89efdaa54c0f20c7adf612882df0950f5a951637e0307cdcb4c672f298b8bc64630604051602001620002209594939291906200092f565b60405160208183030381529060405280519060200120905090565b6000600760009054906101000a900473ffffffffffffffffffffffffffffffffffffffff16905081600760006101000a81548173ffffffffffffffffffffffffffffffffffffffff021916908373ffffffffffffffffffffffffffffffffffffffff1602179055508173ffffffffffffffffffffffffffffffffffffffff168173ffffffffffffffffffffffffffffffffffffffff167f8be0079c531659141344cd1fd0a4f28419497f9722a3daafe3b4186f6b6457e060405160405180910390a35050565b60006200031583836200040560201b60201c565b620003fa5760016006600085815260200190815260200160002060000160008473ffffffffffffffffffffffffffffffffffffffff1673ffffffffffffffffffffffffffffffffffffffff16815260200190815260200160002060006101000a81548160ff021916908315150217905550620003966200047060201b60201c565b73ffffffffffffffffffffffffffffffffffffffff168273ffffffffffffffffffffffffffffffffffffffff16847f2f8788117e7eff1d82e926ec794901d17c78024a50270940304540a733656f0d60405160405180910390a460019050620003ff565b600090505b92915050565b60006006600084815260200190815260200160002060000160008373ffffffffffffffffffffffffffffffffffffffff1673ffffffffffffffffffffffffffffffffffffffff16815260200190815260200160002060009054906101000a900460ff16905092915050565b600033905090565b600081519050919050565b7f4e487b7100000000000000000000000000000000000000000000000000000000600052604160045260246000fd5b7f4e487b7100000000000000000000000000000000000000000000000000000000600052602260045260246000fd5b60006002820490506001821680620004fa57607f821691505b60208210810362000510576200050f620004b2565b5b50919050565b60008190508160005260206000209050919050565b60006020601f8301049050919050565b600082821b905092915050565b6000600883026200057a7fffffffffffffffffffffffffffffffffffffffffffffffffffffffffffffffff826200053b565b6200058686836200053b565b95508019841693508086168417925050509392505050565b6000819050919050565b6000819050919050565b6000620005d3620005cd620005c7846200059e565b620005a8565b6200059e565b9050919050565b6000819050919050565b620005ef83620005b2565b62000607620005fe82620005da565b84845462000548565b825550505050565b600090565b6200061e6200060f565b6200062b818484620005e4565b505050565b5b8181101562000653576200064760008262000614565b60018101905062000631565b5050565b601f821115620006a2576200066c8162000516565b62000677846200052b565b8101602085101562000687578190505b6200069f62000696856200052b565b83018262000630565b50505b505050565b600082821c905092915050565b6000620006c760001984600802620006a7565b1980831691505092915050565b6000620006e28383620006b4565b9150826002028217905092915050565b620006fd8262000478565b67ffffffffffffffff81111562000719576200071862000483565b5b620007258254620004e1565b6200073282828562000657565b600060209050601f8311600181146200076a576000841562000755578287015190505b620007618582620006d4565b865550620007d1565b601f1984166200077a8662000516565b60005b82811015620007a4578489015182556001820191506020850194506020810190506200077d565b86831015620007c45784890151620007c0601f891682620006b4565b8355505b6001600288020188555050505b505050505050565b600073ffffffffffffffffffffffffffffffffffffffff82169050919050565b60006200080682620007d9565b9050919050565b6200081881620007f9565b82525050565b60006020820190506200083560008301846200080d565b92915050565b600081905092915050565b60008190508160005260206000209050919050565b600081546200086a81620004e1565b6200087681866200083b565b94506001821660008114620008945760018114620008aa57620008e1565b60ff1983168652811515820286019350620008e1565b620008b58562000846565b60005b83811015620008d957815481890152600182019150602081019050620008b8565b838801955050505b50505092915050565b6000620008f882846200085b565b915081905092915050565b6000819050919050565b620009188162000903565b82525050565b62000929816200059e565b82525050565b600060a0820190506200094660008301886200090d565b6200095560208301876200090d565b6200096460408301866200090d565b6200097360608301856200091e565b6200098260808301846200080d565b9695505050505050565b60805160a05160c05161206a620009bc60003960006109ce0152600061099a01526000610974015261206a6000f3fe608060405234801561001057600080fd5b50600436106101735760003560e01c806370a08231116100de578063a217fddf11610097578063d539139311610071578063d539139314610460578063d547741f1461047e578063dd62ed3e1461049a578063f2fde38b146104ca57610173565b8063a217fddf146103f6578063a9059cbb14610414578063d505accf1461044457610173565b806370a0823114610320578063715018a6146103505780637ecebe001461035a5780638da5cb5b1461038a57806391d14854146103a857806395d89b41146103d857610173565b80632f2ff15d116101305780632f2ff15d14610274578063313ce567146102905780633644e515146102ae57806336568abe146102cc5780633dd1eb61146102e857806340c10f191461030457610173565b806301ffc9a71461017857806306fdde03146101a8578063095ea7b3146101c657806318160ddd146101f657806323b872dd14610214578063248a9ca314610244575b600080fd5b610192600480360381019061018d919061170b565b6104e6565b60405161019f9190611753565b60405180910390f35b6101b0610560565b6040516101bd91906117fe565b60405180910390f35b6101e060048036038101906101db91906118b4565b6105ee565b6040516101ed9190611753565b60405180910390f35b6101fe6106e0565b60405161020b9190611903565b60405180910390f35b61022e6004803603810190610229919061191e565b6106e6565b60405161023b9190611753565b60405180910390f35b61025e600480360381019061025991906119a7565b610930565b60405161026b91906119e3565b60405180910390f35b61028e600480360381019061028991906119fe565b610950565b005b610298610972565b6040516102a59190611a5a565b60405180910390f35b6102b6610996565b6040516102c391906119e3565b60405180910390f35b6102e660048036038101906102e191906119fe565b6109f3565b005b61030260048036038101906102fd9190611a75565b610a6e565b005b61031e600480360381019061031991906118b4565b610aa4565b005b61033a60048036038101906103359190611a75565b610add565b6040516103479190611903565b60405180910390f35b610358610af5565b005b610374600480360381019061036f9190611a75565b610b09565b6040516103819190611903565b60405180910390f35b610392610b21565b60405161039f9190611ab1565b60405180910390f35b6103c260048036038101906103bd91906119fe565b610b4b565b6040516103cf9190611753565b60405180910390f35b6103e0610bb6565b6040516103ed91906117fe565b60405180910390f35b6103fe610c44565b60405161040b91906119e3565b60405180910390f35b61042e600480360381019061042991906118b4565b610c4b565b60405161043b9190611753565b60405180910390f35b61045e60048036038101906104599190611af8565b610d5f565b005b610468611058565b60405161047591906119e3565b60405180910390f35b610498600480360381019061049391906119fe565b61107c565b005b6104b460048036038101906104af9190611b9a565b61109e565b6040516104c19190611903565b60405180910390f35b6104e460048036038101906104df9190611a75565b6110c3565b005b60007f7965db0b000000000000000000000000000000000000000000000000000000007bffffffffffffffffffffffffffffffffffffffffffffffffffffffff1916827bffffffffffffffffffffffffffffffffffffffffffffffffffffffff19161480610559575061055882611149565b5b9050919050565b6000805461056d90611c09565b80601f016020809104026020016040519081016040528092919081815260200182805461059990611c09565b80156105e65780601f106105bb576101008083540402835291602001916105e6565b820191906000526020600020905b8154815290600101906020018083116105c957829003601f168201915b505050505081565b600081600460003373ffffffffffffffffffffffffffffffffffffffff1673ffffffffffffffffffffffffffffffffffffffff16815260200190815260200160002060008573ffffffffffffffffffffffffffffffffffffffff1673ffffffffffffffffffffffffffffffffffffffff168152602001908152602001600020819055508273ffffffffffffffffffffffffffffffffffffffff163373ffffffffffffffffffffffffffffffffffffffff167f8c5be1e5ebec7d5bd14f71427d1e84f3dd0314c0f7b2291e5b200ac8c7c3b925846040516106ce9190611903565b60405180910390a36001905092915050565b60025481565b600080600460008673ffffffffffffffffffffffffffffffffffffffff1673ffffffffffffffffffffffffffffffffffffffff16815260200190815260200160002060003373ffffffffffffffffffffffffffffffffffffffff1673ffffffffffffffffffffffffffffffffffffffff1681526020019081526020016000205490507fffffffffffffffffffffffffffffffffffffffffffffffffffffffffffffffff811461081c57828161079b9190611c69565b600460008773ffffffffffffffffffffffffffffffffffffffff1673ffffffffffffffffffffffffffffffffffffffff16815260200190815260200160002060003373ffffffffffffffffffffffffffffffffffffffff1673ffffffffffffffffffffffffffffffffffffffff168152602001908152602001600020819055505b82600360008773ffffffffffffffffffffffffffffffffffffffff1673ffffffffffffffffffffffffffffffffffffffff168152602001908152602001600020600082825461086b9190611c69565b9250508190555082600360008673ffffffffffffffffffffffffffffffffffffffff1673ffffffffffffffffffffffffffffffffffffffff168152602001908152602001600020600082825401925050819055508373ffffffffffffffffffffffffffffffffffffffff168573ffffffffffffffffffffffffffffffffffffffff167fddf252ad1be2c89b69c2b068fc378daa952ba7f163c4a11628f55a4df523b3ef8560405161091c9190611903565b60405180910390a360019150509392505050565b600060066000838152602001908152602001600020600101549050919050565b61095982610930565b610962816111b3565b61096c83836111c7565b50505050565b7f000000000000000000000000000000000000000000000000000000000000000081565b60007f000000000000000000000000000000000000000000000000000000000000000046146109cc576109c76112b9565b6109ee565b7f00000000000000000000000000000000000000000000000000000000000000005b905090565b6109fb611345565b73ffffffffffffffffffffffffffffffffffffffff168173ffffffffffffffffffffffffffffffffffffffff1614610a5f576040517f6697b23200000000000000000000000000000000000000000000000000000000815260040160405180910390fd5b610a69828261134d565b505050565b610a76611440565b610aa07f9f2df0fed2c77648de5860a4cc508cd0818c85b8b8a1ab4ceeef8d981c8956a6826111c7565b5050565b7f9f2df0fed2c77648de5860a4cc508cd0818c85b8b8a1ab4ceeef8d981c8956a6610ace816111b3565b610ad883836114c7565b505050565b60036020528060005260406000206000915090505481565b610afd611440565b610b076000611597565b565b60056020528060005260406000206000915090505481565b6000600760009054906101000a900473ffffffffffffffffffffffffffffffffffffffff16905090565b60006006600084815260200190815260200160002060000160008373ffffffffffffffffffffffffffffffffffffffff1673ffffffffffffffffffffffffffffffffffffffff16815260200190815260200160002060009054906101000a900460ff16905092915050565b60018054610bc390611c09565b80601f0160208091040260200160405190810160405280929190818152602001828054610bef90611c09565b8015610c3c5780601f10610c1157610100808354040283529160200191610c3c565b820191906000526020600020905b815481529060010190602001808311610c1f57829003601f168201915b505050505081565b6000801b81565b600081600360003373ffffffffffffffffffffffffffffffffffffffff1673ffffffffffffffffffffffffffffffffffffffff1681526020019081526020016000206000828254610c9c9190611c69565b9250508190555081600360008573ffffffffffffffffffffffffffffffffffffffff1673ffffffffffffffffffffffffffffffffffffffff168152602001908152602001600020600082825401925050819055508273ffffffffffffffffffffffffffffffffffffffff163373ffffffffffffffffffffffffffffffffffffffff167fddf252ad1be2c89b69c2b068fc378daa952ba7f163c4a11628f55a4df523b3ef84604051610d4d9190611903565b60405180910390a36001905092915050565b42841015610da2576040517f08c379a0000000000000000000000000000000000000000000000000000000008152600401610d9990611ce9565b60405180910390fd5b60006001610dae610996565b7f6e71edae12b1b97f4d1f60370fef10105fa2faae0126114a169c64845d6126c98a8a8a600560008f73ffffffffffffffffffffffffffffffffffffffff1673ffffffffffffffffffffffffffffffffffffffff1681526020019081526020016000206000815480929190600101919050558b604051602001610e3696959493929190611d09565b60405160208183030381529060405280519060200120604051602001610e5d929190611de2565b6040516020818303038152906040528051906020012085858560405160008152602001604052604051610e939493929190611e19565b6020604051602081039080840390855afa158015610eb5573d6000803e3d6000fd5b505050602060405103519050600073ffffffffffffffffffffffffffffffffffffffff168173ffffffffffffffffffffffffffffffffffffffff1614158015610f2957508773ffffffffffffffffffffffffffffffffffffffff168173ffffffffffffffffffffffffffffffffffffffff16145b610f68576040517f08c379a0000000000000000000000000000000000000000000000000000000008152600401610f5f90611eaa565b60405180910390fd5b85600460008373ffffffffffffffffffffffffffffffffffffffff1673ffffffffffffffffffffffffffffffffffffffff16815260200190815260200160002060008973ffffffffffffffffffffffffffffffffffffffff1673ffffffffffffffffffffffffffffffffffffffff16815260200190815260200160002081905550508573ffffffffffffffffffffffffffffffffffffffff168773ffffffffffffffffffffffffffffffffffffffff167f8c5be1e5ebec7d5bd14f71427d1e84f3dd0314c0f7b2291e5b200ac8c7c3b925876040516110479190611903565b60405180910390a350505050505050565b7f9f2df0fed2c77648de5860a4cc508cd0818c85b8b8a1ab4ceeef8d981c8956a681565b61108582610930565b61108e816111b3565b611098838361134d565b50505050565b6004602052816000526040600020602052806000526040600020600091509150505481565b6110cb611440565b600073ffffffffffffffffffffffffffffffffffffffff168173ffffffffffffffffffffffffffffffffffffffff160361113d5760006040517f1e4fbdf70000000000000000000000000000000000000000000000000000000081526004016111349190611ab1565b60405180910390fd5b61114681611597565b50565b60007f01ffc9a7000000000000000000000000000000000000000000000000000000007bffffffffffffffffffffffffffffffffffffffffffffffffffffffff1916827bffffffffffffffffffffffffffffffffffffffffffffffffffffffff1916149050919050565b6111c4816111bf611345565b61165d565b50565b60006111d38383610b4b565b6112ae5760016006600085815260200190815260200160002060000160008473ffffffffffffffffffffffffffffffffffffffff1673ffffffffffffffffffffffffffffffffffffffff16815260200190815260200160002060006101000a81548160ff02191690831515021790555061124b611345565b73ffffffffffffffffffffffffffffffffffffffff168273ffffffffffffffffffffffffffffffffffffffff16847f2f8788117e7eff1d82e926ec794901d17c78024a50270940304540a733656f0d60405160405180910390a4600190506112b3565b600090505b92915050565b60007f8b73c3c69bb8fe3d512ecc4cf759cc79239f7b179b0ffacaa9a75d522b39400f60006040516112eb9190611f6d565b60405180910390207fc89efdaa54c0f20c7adf612882df0950f5a951637e0307cdcb4c672f298b8bc6463060405160200161132a959493929190611f84565b60405160208183030381529060405280519060200120905090565b600033905090565b60006113598383610b4b565b156114355760006006600085815260200190815260200160002060000160008473ffffffffffffffffffffffffffffffffffffffff1673ffffffffffffffffffffffffffffffffffffffff16815260200190815260200160002060006101000a81548160ff0219169083151502179055506113d2611345565b73ffffffffffffffffffffffffffffffffffffffff168273ffffffffffffffffffffffffffffffffffffffff16847ff6391f5c32d9c69d2a47ea670b442974b53935d1edc7fd64eb21e047a839171b60405160405180910390a46001905061143a565b600090505b92915050565b611448611345565b73ffffffffffffffffffffffffffffffffffffffff16611466610b21565b73ffffffffffffffffffffffffffffffffffffffff16146114c557611489611345565b6040517f118cdaa70000000000000000000000000000000000000000000000000000000081526004016114bc9190611ab1565b60405180910390fd5b565b80600260008282546114d99190611fd7565b9250508190555080600360008473ffffffffffffffffffffffffffffffffffffffff1673ffffffffffffffffffffffffffffffffffffffff168152602001908152602001600020600082825401925050819055508173ffffffffffffffffffffffffffffffffffffffff16600073ffffffffffffffffffffffffffffffffffffffff167fddf252ad1be2c89b69c2b068fc378daa952ba7f163c4a11628f55a4df523b3ef8360405161158b9190611903565b60405180910390a35050565b6000600760009054906101000a900473ffffffffffffffffffffffffffffffffffffffff16905081600760006101000a81548173ffffffffffffffffffffffffffffffffffffffff021916908373ffffffffffffffffffffffffffffffffffffffff1602179055508173ffffffffffffffffffffffffffffffffffffffff168173ffffffffffffffffffffffffffffffffffffffff167f8be0079c531659141344cd1fd0a4f28419497f9722a3daafe3b4186f6b6457e060405160405180910390a35050565b6116678282610b4b565b6116aa5780826040517fe2517d3f0000000000000000000000000000000000000000000000000000000081526004016116a192919061200b565b60405180910390fd5b5050565b600080fd5b60007fffffffff0000000000000000000000000000000000000000000000000000000082169050919050565b6116e8816116b3565b81146116f357600080fd5b50565b600081359050611705816116df565b92915050565b600060208284031215611721576117206116ae565b5b600061172f848285016116f6565b91505092915050565b60008115159050919050565b61174d81611738565b82525050565b60006020820190506117686000830184611744565b92915050565b600081519050919050565b600082825260208201905092915050565b60005b838110156117a857808201518184015260208101905061178d565b60008484015250505050565b6000601f19601f8301169050919050565b60006117d08261176e565b6117da8185611779565b93506117ea81856020860161178a565b6117f3816117b4565b840191505092915050565b6000602082019050818103600083015261181881846117c5565b905092915050565b600073ffffffffffffffffffffffffffffffffffffffff82169050919050565b600061184b82611820565b9050919050565b61185b81611840565b811461186657600080fd5b50565b60008135905061187881611852565b92915050565b6000819050919050565b6118918161187e565b811461189c57600080fd5b50565b6000813590506118ae81611888565b92915050565b600080604083850312156118cb576118ca6116ae565b5b60006118d985828601611869565b92505060206118ea8582860161189f565b9150509250929050565b6118fd8161187e565b82525050565b600060208201905061191860008301846118f4565b92915050565b600080600060608486031215611937576119366116ae565b5b600061194586828701611869565b935050602061195686828701611869565b92505060406119678682870161189f565b9150509250925092565b6000819050919050565b61198481611971565b811461198f57600080fd5b50565b6000813590506119a18161197b565b92915050565b6000602082840312156119bd576119bc6116ae565b5b60006119cb84828501611992565b91505092915050565b6119dd81611971565b82525050565b60006020820190506119f860008301846119d4565b92915050565b60008060408385031215611a1557611a146116ae565b5b6000611a2385828601611992565b9250506020611a3485828601611869565b9150509250929050565b600060ff82169050919050565b611a5481611a3e565b82525050565b6000602082019050611a6f6000830184611a4b565b92915050565b600060208284031215611a8b57611a8a6116ae565b5b6000611a9984828501611869565b91505092915050565b611aab81611840565b82525050565b6000602082019050611ac66000830184611aa2565b92915050565b611ad581611a3e565b8114611ae057600080fd5b50565b600081359050611af281611acc565b92915050565b600080600080600080600060e0888a031215611b1757611b166116ae565b5b6000611b258a828b01611869565b9750506020611b368a828b01611869565b9650506040611b478a828b0161189f565b9550506060611b588a828b0161189f565b9450506080611b698a828b01611ae3565b93505060a0611b7a8a828b01611992565b92505060c0611b8b8a828b01611992565b91505092959891949750929550565b60008060408385031215611bb157611bb06116ae565b5b6000611bbf85828601611869565b9250506020611bd085828601611869565b9150509250929050565b7f4e487b7100000000000000000000000000000000000000000000000000000000600052602260045260246000fd5b60006002820490506001821680611c2157607f821691505b602082108103611c3457611c33611bda565b5b50919050565b7f4e487b7100000000000000000000000000000000000000000000000000000000600052601160045260246000fd5b6000611c748261187e565b9150611c7f8361187e565b9250828203905081811115611c9757611c96611c3a565b5b92915050565b7f5045524d49545f444541444c494e455f45585049524544000000000000000000600082015250565b6000611cd3601783611779565b9150611cde82611c9d565b602082019050919050565b60006020820190508181036000830152611d0281611cc6565b9050919050565b600060c082019050611d1e60008301896119d4565b611d2b6020830188611aa2565b611d386040830187611aa2565b611d4560608301866118f4565b611d5260808301856118f4565b611d5f60a08301846118f4565b979650505050505050565b600081905092915050565b7f1901000000000000000000000000000000000000000000000000000000000000600082015250565b6000611dab600283611d6a565b9150611db682611d75565b600282019050919050565b6000819050919050565b611ddc611dd782611971565b611dc1565b82525050565b6000611ded82611d9e565b9150611df98285611dcb565b602082019150611e098284611dcb565b6020820191508190509392505050565b6000608082019050611e2e60008301876119d4565b611e3b6020830186611a4b565b611e4860408301856119d4565b611e5560608301846119d4565b95945050505050565b7f494e56414c49445f5349474e4552000000000000000000000000000000000000600082015250565b6000611e94600e83611779565b9150611e9f82611e5e565b602082019050919050565b60006020820190508181036000830152611ec381611e87565b9050919050565b600081905092915050565b60008190508160005260206000209050919050565b60008154611ef781611c09565b611f018186611eca565b94506001821660008114611f1c5760018114611f3157611f64565b60ff1983168652811515820286019350611f64565b611f3a85611ed5565b60005b83811015611f5c57815481890152600182019150602081019050611f3d565b838801955050505b50505092915050565b6000611f798284611eea565b915081905092915050565b600060a082019050611f9960008301886119d4565b611fa660208301876119d4565b611fb360408301866119d4565b611fc060608301856118f4565b611fcd6080830184611aa2565b9695505050505050565b6000611fe28261187e565b9150611fed8361187e565b925082820190508082111561200557612004611c3a565b5b92915050565b60006040820190506120206000830185611aa2565b61202d60208301846119d4565b939250505056fea264697066735822122023f94e77cc21ce08014424ae0951b5acb0ea95ee04e137074b5a074fcb52b8c964736f6c63430008140033",
  "linkReferences": {},
  "deployedLinkReferences": {}
}